{
  "compilerInput": "{\"language\":\"Solidity\",\"sources\":{\"multisender.sol\":{\"content\":\"// Clone of https://etherscan.io/address/0xD152f549545093347A162Dce210e7293f1452150#code\\npragma solidity ^0.4.25;\\n\\ninterface IERC20 {\\n    function transfer(address to, uint256 value) external returns (bool);\\n    function transferFrom(address from, address to, uint256 value) external returns (bool);\\n}\\n\\ncontract Disperse {\\n    function disperseEther(address[] recipients, uint256[] values) external payable {\\n        for (uint256 i = 0; i < recipients.length; i++)\\n            recipients[i].transfer(values[i]);\\n        uint256 balance = address(this).balance;\\n        if (balance > 0)\\n            msg.sender.transfer(balance);\\n    }\\n\\n    function disperseToken(IERC20 token, address[] recipients, uint256[] values) external {\\n        uint256 total = 0;\\n        for (uint256 i = 0; i < recipients.length; i++)\\n            total += values[i];\\n        require(token.transferFrom(msg.sender, address(this), total));\\n        for (i = 0; i < recipients.length; i++)\\n            require(token.transfer(recipients[i], values[i]));\\n    }\\n\\n    function disperseTokenSimple(IERC20 token, address[] recipients, uint256[] values) external {\\n        for (uint256 i = 0; i < recipients.length; i++)\\n            require(token.transferFrom(msg.sender, recipients[i], values[i]));\\n    }\\n}\"}},\"settings\":{\"optimizer\":{\"enabled\":false,\"runs\":200},\"outputSelection\":{\"*\":{\"\":[\"ast\"],\"*\":[\"abi\",\"metadata\",\"devdoc\",\"userdoc\",\"storageLayout\",\"evm.legacyAssembly\",\"evm.bytecode\",\"evm.deployedBytecode\",\"evm.methodIdentifiers\",\"evm.gasEstimates\",\"evm.assembly\"]}},\"remappings\":[]}}",
  "name": "Disperse",
  "bytecode": {
    "linkReferences": {},
    "object": "608060405234801561001057600080fd5b506106f4806100206000396000f300608060405260043610610057576000357c0100000000000000000000000000000000000000000000000000000000900463ffffffff16806351ba162c1461005c578063c73a2d60146100cf578063e63d38ed14610142575b600080fd5b34801561006857600080fd5b506100cd600480360381019080803573ffffffffffffffffffffffffffffffffffffffff169060200190929190803590602001908201803590602001919091929391929390803590602001908201803590602001919091929391929390505050610188565b005b3480156100db57600080fd5b50610140600480360381019080803573ffffffffffffffffffffffffffffffffffffffff169060200190929190803590602001908201803590602001919091929391929390803590602001908201803590602001919091929391929390505050610309565b005b6101866004803603810190808035906020019082018035906020019190919293919293908035906020019082018035906020019190919293919293905050506105b0565b005b60008090505b84849050811015610301578573ffffffffffffffffffffffffffffffffffffffff166323b872dd3387878581811015156101c457fe5b9050602002013573ffffffffffffffffffffffffffffffffffffffff1686868681811015156101ef57fe5b905060200201356040518463ffffffff167c0100000000000000000000000000000000000000000000000000000000028152600401808473ffffffffffffffffffffffffffffffffffffffff1673ffffffffffffffffffffffffffffffffffffffff1681526020018373ffffffffffffffffffffffffffffffffffffffff1673ffffffffffffffffffffffffffffffffffffffff1681526020018281526020019350505050602060405180830381600087803b1580156102ae57600080fd5b505af11580156102c2573d6000803e3d6000fd5b505050506040513d60208110156102d857600080fd5b810190808051906020019092919050505015156102f457600080fd5b808060010191505061018e565b505050505050565b60008060009150600090505b8585905081101561034657838382818110151561032e57fe5b90506020020135820191508080600101915050610315565b8673ffffffffffffffffffffffffffffffffffffffff166323b872dd3330856040518463ffffffff167c0100000000000000000000000000000000000000000000000000000000028152600401808473ffffffffffffffffffffffffffffffffffffffff1673ffffffffffffffffffffffffffffffffffffffff1681526020018373ffffffffffffffffffffffffffffffffffffffff1673ffffffffffffffffffffffffffffffffffffffff1681526020018281526020019350505050602060405180830381600087803b15801561041d57600080fd5b505af1158015610431573d6000803e3d6000fd5b505050506040513d602081101561044757600080fd5b8101908080519060200190929190505050151561046357600080fd5b600090505b858590508110156105a7578673ffffffffffffffffffffffffffffffffffffffff1663a9059cbb878784818110151561049d57fe5b9050602002013573ffffffffffffffffffffffffffffffffffffffff1686868581811015156104c857fe5b905060200201356040518363ffffffff167c0100000000000000000000000000000000000000000000000000000000028152600401808373ffffffffffffffffffffffffffffffffffffffff1673ffffffffffffffffffffffffffffffffffffffff16815260200182815260200192505050602060405180830381600087803b15801561055457600080fd5b505af1158015610568573d6000803e3d6000fd5b505050506040513d602081101561057e57600080fd5b8101908080519060200190929190505050151561059a57600080fd5b8080600101915050610468565b50505050505050565b600080600091505b858590508210156106555785858381811015156105d157fe5b9050602002013573ffffffffffffffffffffffffffffffffffffffff1673ffffffffffffffffffffffffffffffffffffffff166108fc858585818110151561061557fe5b905060200201359081150290604051600060405180830381858888f19350505050158015610647573d6000803e3d6000fd5b5081806001019250506105b8565b3073ffffffffffffffffffffffffffffffffffffffff1631905060008111156106c0573373ffffffffffffffffffffffffffffffffffffffff166108fc829081150290604051600060405180830381858888f193505050501580156106be573d6000803e3d6000fd5b505b5050505050505600a165627a7a723058201c4f04a1467d98558446680b7371cb60d5f06661700530cd592f9c10db7b8fbb0029",
    "opcodes": "PUSH1 0x80 PUSH1 0x40 MSTORE CALLVALUE DUP1 ISZERO PUSH2 0x10 JUMPI PUSH1 0x0 DUP1 REVERT JUMPDEST POP PUSH2 0x6F4 DUP1 PUSH2 0x20 PUSH1 0x0 CODECOPY PUSH1 0x0 RETURN STOP PUSH1 0x80 PUSH1 0x40 MSTORE PUSH1 0x4 CALLDATASIZE LT PUSH2 0x57 JUMPI PUSH1 0x0 CALLDATALOAD PUSH29 0x100000000000000000000000000000000000000000000000000000000 SWAP1 DIV PUSH4 0xFFFFFFFF AND DUP1 PUSH4 0x51BA162C EQ PUSH2 0x5C JUMPI DUP1 PUSH4 0xC73A2D60 EQ PUSH2 0xCF JUMPI DUP1 PUSH4 0xE63D38ED EQ PUSH2 0x142 JUMPI JUMPDEST PUSH1 0x0 DUP1 REVERT JUMPDEST CALLVALUE DUP1 ISZERO PUSH2 0x68 JUMPI PUSH1 0x0 DUP1 REVERT JUMPDEST POP PUSH2 0xCD PUSH1 0x4 DUP1 CALLDATASIZE SUB DUP2 ADD SWAP1 DUP1 DUP1 CALLDATALOAD PUSH20 0xFFFFFFFFFFFFFFFFFFFFFFFFFFFFFFFFFFFFFFFF AND SWAP1 PUSH1 0x20 ADD SWAP1 SWAP3 SWAP2 SWAP1 DUP1 CALLDATALOAD SWAP1 PUSH1 0x20 ADD SWAP1 DUP3 ADD DUP1 CALLDATALOAD SWAP1 PUSH1 0x20 ADD SWAP2 SWAP1 SWAP2 SWAP3 SWAP4 SWAP2 SWAP3 SWAP4 SWAP1 DUP1 CALLDATALOAD SWAP1 PUSH1 0x20 ADD SWAP1 DUP3 ADD DUP1 CALLDATALOAD SWAP1 PUSH1 0x20 ADD SWAP2 SWAP1 SWAP2 SWAP3 SWAP4 SWAP2 SWAP3 SWAP4 SWAP1 POP POP POP PUSH2 0x188 JUMP JUMPDEST STOP JUMPDEST CALLVALUE DUP1 ISZERO PUSH2 0xDB JUMPI PUSH1 0x0 DUP1 REVERT JUMPDEST POP PUSH2 0x140 PUSH1 0x4 DUP1 CALLDATASIZE SUB DUP2 ADD SWAP1 DUP1 DUP1 CALLDATALOAD PUSH20 0xFFFFFFFFFFFFFFFFFFFFFFFFFFFFFFFFFFFFFFFF AND SWAP1 PUSH1 0x20 ADD SWAP1 SWAP3 SWAP2 SWAP1 DUP1 CALLDATALOAD SWAP1 PUSH1 0x20 ADD SWAP1 DUP3 ADD DUP1 CALLDATALOAD SWAP1 PUSH1 0x20 ADD SWAP2 SWAP1 SWAP2 SWAP3 SWAP4 SWAP2 SWAP3 SWAP4 SWAP1 DUP1 CALLDATALOAD SWAP1 PUSH1 0x20 ADD SWAP1 DUP3 ADD DUP1 CALLDATALOAD SWAP1 PUSH1 0x20 ADD SWAP2 SWAP1 SWAP2 SWAP3 SWAP4 SWAP2 SWAP3 SWAP4 SWAP1 POP POP POP PUSH2 0x309 JUMP JUMPDEST STOP JUMPDEST PUSH2 0x186 PUSH1 0x4 DUP1 CALLDATASIZE SUB DUP2 ADD SWAP1 DUP1 DUP1 CALLDATALOAD SWAP1 PUSH1 0x20 ADD SWAP1 DUP3 ADD DUP1 CALLDATALOAD SWAP1 PUSH1 0x20 ADD SWAP2 SWAP1 SWAP2 SWAP3 SWAP4 SWAP2 SWAP3 SWAP4 SWAP1 DUP1 CALLDATALOAD SWAP1 PUSH1 0x20 ADD SWAP1 DUP3 ADD DUP1 CALLDATALOAD SWAP1 PUSH1 0x20 ADD SWAP2 SWAP1 SWAP2 SWAP3 SWAP4 SWAP2 SWAP3 SWAP4 SWAP1 POP POP POP PUSH2 0x5B0 JUMP JUMPDEST STOP JUMPDEST PUSH1 0x0 DUP1 SWAP1 POP JUMPDEST DUP5 DUP5 SWAP1 POP DUP2 LT ISZERO PUSH2 0x301 JUMPI DUP6 PUSH20 0xFFFFFFFFFFFFFFFFFFFFFFFFFFFFFFFFFFFFFFFF AND PUSH4 0x23B872DD CALLER DUP8 DUP8 DUP6 DUP2 DUP2 LT ISZERO ISZERO PUSH2 0x1C4 JUMPI INVALID JUMPDEST SWAP1 POP PUSH1 0x20 MUL ADD CALLDATALOAD PUSH20 0xFFFFFFFFFFFFFFFFFFFFFFFFFFFFFFFFFFFFFFFF AND DUP7 DUP7 DUP7 DUP2 DUP2 LT ISZERO ISZERO PUSH2 0x1EF JUMPI INVALID JUMPDEST SWAP1 POP PUSH1 0x20 MUL ADD CALLDATALOAD PUSH1 0x40 MLOAD DUP5 PUSH4 0xFFFFFFFF AND PUSH29 0x100000000000000000000000000000000000000000000000000000000 MUL DUP2 MSTORE PUSH1 0x4 ADD DUP1 DUP5 PUSH20 0xFFFFFFFFFFFFFFFFFFFFFFFFFFFFFFFFFFFFFFFF AND PUSH20 0xFFFFFFFFFFFFFFFFFFFFFFFFFFFFFFFFFFFFFFFF AND DUP2 MSTORE PUSH1 0x20 ADD DUP4 PUSH20 0xFFFFFFFFFFFFFFFFFFFFFFFFFFFFFFFFFFFFFFFF AND PUSH20 0xFFFFFFFFFFFFFFFFFFFFFFFFFFFFFFFFFFFFFFFF AND DUP2 MSTORE PUSH1 0x20 ADD DUP3 DUP2 MSTORE PUSH1 0x20 ADD SWAP4 POP POP POP POP PUSH1 0x20 PUSH1 0x40 MLOAD DUP1 DUP4 SUB DUP2 PUSH1 0x0 DUP8 DUP1 EXTCODESIZE ISZERO DUP1 ISZERO PUSH2 0x2AE JUMPI PUSH1 0x0 DUP1 REVERT JUMPDEST POP GAS CALL ISZERO DUP1 ISZERO PUSH2 0x2C2 JUMPI RETURNDATASIZE PUSH1 0x0 DUP1 RETURNDATACOPY RETURNDATASIZE PUSH1 0x0 REVERT JUMPDEST POP POP POP POP PUSH1 0x40 MLOAD RETURNDATASIZE PUSH1 0x20 DUP2 LT ISZERO PUSH2 0x2D8 JUMPI PUSH1 0x0 DUP1 REVERT JUMPDEST DUP2 ADD SWAP1 DUP1 DUP1 MLOAD SWAP1 PUSH1 0x20 ADD SWAP1 SWAP3 SWAP2 SWAP1 POP POP POP ISZERO ISZERO PUSH2 0x2F4 JUMPI PUSH1 0x0 DUP1 REVERT JUMPDEST DUP1 DUP1 PUSH1 0x1 ADD SWAP2 POP POP PUSH2 0x18E JUMP JUMPDEST POP POP POP POP POP POP JUMP JUMPDEST PUSH1 0x0 DUP1 PUSH1 0x0 SWAP2 POP PUSH1 0x0 SWAP1 POP JUMPDEST DUP6 DUP6 SWAP1 POP DUP2 LT ISZERO PUSH2 0x346 JUMPI DUP4 DUP4 DUP3 DUP2 DUP2 LT ISZERO ISZERO PUSH2 0x32E JUMPI INVALID JUMPDEST SWAP1 POP PUSH1 0x20 MUL ADD CALLDATALOAD DUP3 ADD SWAP2 POP DUP1 DUP1 PUSH1 0x1 ADD SWAP2 POP POP PUSH2 0x315 JUMP JUMPDEST DUP7 PUSH20 0xFFFFFFFFFFFFFFFFFFFFFFFFFFFFFFFFFFFFFFFF AND PUSH4 0x23B872DD CALLER ADDRESS DUP6 PUSH1 0x40 MLOAD DUP5 PUSH4 0xFFFFFFFF AND PUSH29 0x100000000000000000000000000000000000000000000000000000000 MUL DUP2 MSTORE PUSH1 0x4 ADD DUP1 DUP5 PUSH20 0xFFFFFFFFFFFFFFFFFFFFFFFFFFFFFFFFFFFFFFFF AND PUSH20 0xFFFFFFFFFFFFFFFFFFFFFFFFFFFFFFFFFFFFFFFF AND DUP2 MSTORE PUSH1 0x20 ADD DUP4 PUSH20 0xFFFFFFFFFFFFFFFFFFFFFFFFFFFFFFFFFFFFFFFF AND PUSH20 0xFFFFFFFFFFFFFFFFFFFFFFFFFFFFFFFFFFFFFFFF AND DUP2 MSTORE PUSH1 0x20 ADD DUP3 DUP2 MSTORE PUSH1 0x20 ADD SWAP4 POP POP POP POP PUSH1 0x20 PUSH1 0x40 MLOAD DUP1 DUP4 SUB DUP2 PUSH1 0x0 DUP8 DUP1 EXTCODESIZE ISZERO DUP1 ISZERO PUSH2 0x41D JUMPI PUSH1 0x0 DUP1 REVERT JUMPDEST POP GAS CALL ISZERO DUP1 ISZERO PUSH2 0x431 JUMPI RETURNDATASIZE PUSH1 0x0 DUP1 RETURNDATACOPY RETURNDATASIZE PUSH1 0x0 REVERT JUMPDEST POP POP POP POP PUSH1 0x40 MLOAD RETURNDATASIZE PUSH1 0x20 DUP2 LT ISZERO PUSH2 0x447 JUMPI PUSH1 0x0 DUP1 REVERT JUMPDEST DUP2 ADD SWAP1 DUP1 DUP1 MLOAD SWAP1 PUSH1 0x20 ADD SWAP1 SWAP3 SWAP2 SWAP1 POP POP POP ISZERO ISZERO PUSH2 0x463 JUMPI PUSH1 0x0 DUP1 REVERT JUMPDEST PUSH1 0x0 SWAP1 POP JUMPDEST DUP6 DUP6 SWAP1 POP DUP2 LT ISZERO PUSH2 0x5A7 JUMPI DUP7 PUSH20 0xFFFFFFFFFFFFFFFFFFFFFFFFFFFFFFFFFFFFFFFF AND PUSH4 0xA9059CBB DUP8 DUP8 DUP5 DUP2 DUP2 LT ISZERO ISZERO PUSH2 0x49D JUMPI INVALID JUMPDEST SWAP1 POP PUSH1 0x20 MUL ADD CALLDATALOAD PUSH20 0xFFFFFFFFFFFFFFFFFFFFFFFFFFFFFFFFFFFFFFFF AND DUP7 DUP7 DUP6 DUP2 DUP2 LT ISZERO ISZERO PUSH2 0x4C8 JUMPI INVALID JUMPDEST SWAP1 POP PUSH1 0x20 MUL ADD CALLDATALOAD PUSH1 0x40 MLOAD DUP4 PUSH4 0xFFFFFFFF AND PUSH29 0x100000000000000000000000000000000000000000000000000000000 MUL DUP2 MSTORE PUSH1 0x4 ADD DUP1 DUP4 PUSH20 0xFFFFFFFFFFFFFFFFFFFFFFFFFFFFFFFFFFFFFFFF AND PUSH20 0xFFFFFFFFFFFFFFFFFFFFFFFFFFFFFFFFFFFFFFFF AND DUP2 MSTORE PUSH1 0x20 ADD DUP3 DUP2 MSTORE PUSH1 0x20 ADD SWAP3 POP POP POP PUSH1 0x20 PUSH1 0x40 MLOAD DUP1 DUP4 SUB DUP2 PUSH1 0x0 DUP8 DUP1 EXTCODESIZE ISZERO DUP1 ISZERO PUSH2 0x554 JUMPI PUSH1 0x0 DUP1 REVERT JUMPDEST POP GAS CALL ISZERO DUP1 ISZERO PUSH2 0x568 JUMPI RETURNDATASIZE PUSH1 0x0 DUP1 RETURNDATACOPY RETURNDATASIZE PUSH1 0x0 REVERT JUMPDEST POP POP POP POP PUSH1 0x40 MLOAD RETURNDATASIZE PUSH1 0x20 DUP2 LT ISZERO PUSH2 0x57E JUMPI PUSH1 0x0 DUP1 REVERT JUMPDEST DUP2 ADD SWAP1 DUP1 DUP1 MLOAD SWAP1 PUSH1 0x20 ADD SWAP1 SWAP3 SWAP2 SWAP1 POP POP POP ISZERO ISZERO PUSH2 0x59A JUMPI PUSH1 0x0 DUP1 REVERT JUMPDEST DUP1 DUP1 PUSH1 0x1 ADD SWAP2 POP POP PUSH2 0x468 JUMP JUMPDEST POP POP POP POP POP POP POP JUMP JUMPDEST PUSH1 0x0 DUP1 PUSH1 0x0 SWAP2 POP JUMPDEST DUP6 DUP6 SWAP1 POP DUP3 LT ISZERO PUSH2 0x655 JUMPI DUP6 DUP6 DUP4 DUP2 DUP2 LT ISZERO ISZERO PUSH2 0x5D1 JUMPI INVALID JUMPDEST SWAP1 POP PUSH1 0x20 MUL ADD CALLDATALOAD PUSH20 0xFFFFFFFFFFFFFFFFFFFFFFFFFFFFFFFFFFFFFFFF AND PUSH20 0xFFFFFFFFFFFFFFFFFFFFFFFFFFFFFFFFFFFFFFFF AND PUSH2 0x8FC DUP6 DUP6 DUP6 DUP2 DUP2 LT ISZERO ISZERO PUSH2 0x615 JUMPI INVALID JUMPDEST SWAP1 POP PUSH1 0x20 MUL ADD CALLDATALOAD SWAP1 DUP2 ISZERO MUL SWAP1 PUSH1 0x40 MLOAD PUSH1 0x0 PUSH1 0x40 MLOAD DUP1 DUP4 SUB DUP2 DUP6 DUP9 DUP9 CALL SWAP4 POP POP POP POP ISZERO DUP1 ISZERO PUSH2 0x647 JUMPI RETURNDATASIZE PUSH1 0x0 DUP1 RETURNDATACOPY RETURNDATASIZE PUSH1 0x0 REVERT JUMPDEST POP DUP2 DUP1 PUSH1 0x1 ADD SWAP3 POP POP PUSH2 0x5B8 JUMP JUMPDEST ADDRESS PUSH20 0xFFFFFFFFFFFFFFFFFFFFFFFFFFFFFFFFFFFFFFFF AND BALANCE SWAP1 POP PUSH1 0x0 DUP2 GT ISZERO PUSH2 0x6C0 JUMPI CALLER PUSH20 0xFFFFFFFFFFFFFFFFFFFFFFFFFFFFFFFFFFFFFFFF AND PUSH2 0x8FC DUP3 SWAP1 DUP2 ISZERO MUL SWAP1 PUSH1 0x40 MLOAD PUSH1 0x0 PUSH1 0x40 MLOAD DUP1 DUP4 SUB DUP2 DUP6 DUP9 DUP9 CALL SWAP4 POP POP POP POP ISZERO DUP1 ISZERO PUSH2 0x6BE JUMPI RETURNDATASIZE PUSH1 0x0 DUP1 RETURNDATACOPY RETURNDATASIZE PUSH1 0x0 REVERT JUMPDEST POP JUMPDEST POP POP POP POP POP POP JUMP STOP LOG1 PUSH6 0x627A7A723058 KECCAK256 SHR 0x4f DIV LOG1 0x46 PUSH30 0x98558446680B7371CB60D5F06661700530CD592F9C10DB7B8FBB00290000 "
  },
  "abi": [
    {
      "constant": false,
      "inputs": [
        {
          "name": "recipients",
          "type": "address[]"
        },
        {
          "name": "values",
          "type": "uint256[]"
        }
      ],
      "name": "disperseEther",
      "outputs": [],
      "payable": true,
      "stateMutability": "payable",
      "type": "function"
    },
    {
      "constant": false,
      "inputs": [
        {
          "name": "token",
          "type": "address"
        },
        {
          "name": "recipients",
          "type": "address[]"
        },
        {
          "name": "values",
          "type": "uint256[]"
        }
      ],
      "name": "disperseToken",
      "outputs": [],
      "payable": false,
      "stateMutability": "nonpayable",
      "type": "function"
    },
    {
      "constant": false,
      "inputs": [
        {
          "name": "token",
          "type": "address"
        },
        {
          "name": "recipients",
          "type": "address[]"
        },
        {
          "name": "values",
          "type": "uint256[]"
        }
      ],
      "name": "disperseTokenSimple",
      "outputs": [],
      "payable": false,
      "stateMutability": "nonpayable",
      "type": "function"
    }
  ],
  "web3Deploy": "var disperseContract = new web3.eth.Contract([{\"constant\":false,\"inputs\":[{\"name\":\"token\",\"type\":\"address\"},{\"name\":\"recipients\",\"type\":\"address[]\"},{\"name\":\"values\",\"type\":\"uint256[]\"}],\"name\":\"disperseTokenSimple\",\"outputs\":[],\"payable\":false,\"stateMutability\":\"nonpayable\",\"type\":\"function\"},{\"constant\":false,\"inputs\":[{\"name\":\"token\",\"type\":\"address\"},{\"name\":\"recipients\",\"type\":\"address[]\"},{\"name\":\"values\",\"type\":\"uint256[]\"}],\"name\":\"disperseToken\",\"outputs\":[],\"payable\":false,\"stateMutability\":\"nonpayable\",\"type\":\"function\"},{\"constant\":false,\"inputs\":[{\"name\":\"recipients\",\"type\":\"address[]\"},{\"name\":\"values\",\"type\":\"uint256[]\"}],\"name\":\"disperseEther\",\"outputs\":[],\"payable\":true,\"stateMutability\":\"payable\",\"type\":\"function\"}]);\nvar disperse = disperseContract.deploy({\n     data: '0x608060405234801561001057600080fd5b506106f4806100206000396000f300608060405260043610610057576000357c0100000000000000000000000000000000000000000000000000000000900463ffffffff16806351ba162c1461005c578063c73a2d60146100cf578063e63d38ed14610142575b600080fd5b34801561006857600080fd5b506100cd600480360381019080803573ffffffffffffffffffffffffffffffffffffffff169060200190929190803590602001908201803590602001919091929391929390803590602001908201803590602001919091929391929390505050610188565b005b3480156100db57600080fd5b50610140600480360381019080803573ffffffffffffffffffffffffffffffffffffffff169060200190929190803590602001908201803590602001919091929391929390803590602001908201803590602001919091929391929390505050610309565b005b6101866004803603810190808035906020019082018035906020019190919293919293908035906020019082018035906020019190919293919293905050506105b0565b005b60008090505b84849050811015610301578573ffffffffffffffffffffffffffffffffffffffff166323b872dd3387878581811015156101c457fe5b9050602002013573ffffffffffffffffffffffffffffffffffffffff1686868681811015156101ef57fe5b905060200201356040518463ffffffff167c0100000000000000000000000000000000000000000000000000000000028152600401808473ffffffffffffffffffffffffffffffffffffffff1673ffffffffffffffffffffffffffffffffffffffff1681526020018373ffffffffffffffffffffffffffffffffffffffff1673ffffffffffffffffffffffffffffffffffffffff1681526020018281526020019350505050602060405180830381600087803b1580156102ae57600080fd5b505af11580156102c2573d6000803e3d6000fd5b505050506040513d60208110156102d857600080fd5b810190808051906020019092919050505015156102f457600080fd5b808060010191505061018e565b505050505050565b60008060009150600090505b8585905081101561034657838382818110151561032e57fe5b90506020020135820191508080600101915050610315565b8673ffffffffffffffffffffffffffffffffffffffff166323b872dd3330856040518463ffffffff167c0100000000000000000000000000000000000000000000000000000000028152600401808473ffffffffffffffffffffffffffffffffffffffff1673ffffffffffffffffffffffffffffffffffffffff1681526020018373ffffffffffffffffffffffffffffffffffffffff1673ffffffffffffffffffffffffffffffffffffffff1681526020018281526020019350505050602060405180830381600087803b15801561041d57600080fd5b505af1158015610431573d6000803e3d6000fd5b505050506040513d602081101561044757600080fd5b8101908080519060200190929190505050151561046357600080fd5b600090505b858590508110156105a7578673ffffffffffffffffffffffffffffffffffffffff1663a9059cbb878784818110151561049d57fe5b9050602002013573ffffffffffffffffffffffffffffffffffffffff1686868581811015156104c857fe5b905060200201356040518363ffffffff167c0100000000000000000000000000000000000000000000000000000000028152600401808373ffffffffffffffffffffffffffffffffffffffff1673ffffffffffffffffffffffffffffffffffffffff16815260200182815260200192505050602060405180830381600087803b15801561055457600080fd5b505af1158015610568573d6000803e3d6000fd5b505050506040513d602081101561057e57600080fd5b8101908080519060200190929190505050151561059a57600080fd5b8080600101915050610468565b50505050505050565b600080600091505b858590508210156106555785858381811015156105d157fe5b9050602002013573ffffffffffffffffffffffffffffffffffffffff1673ffffffffffffffffffffffffffffffffffffffff166108fc858585818110151561061557fe5b905060200201359081150290604051600060405180830381858888f19350505050158015610647573d6000803e3d6000fd5b5081806001019250506105b8565b3073ffffffffffffffffffffffffffffffffffffffff1631905060008111156106c0573373ffffffffffffffffffffffffffffffffffffffff166108fc829081150290604051600060405180830381858888f193505050501580156106be573d6000803e3d6000fd5b505b5050505050505600a165627a7a723058201c4f04a1467d98558446680b7371cb60d5f06661700530cd592f9c10db7b8fbb0029', \n     arguments: [\n     ]\n}).send({\n     from: web3.eth.accounts[0], \n     gas: '4700000'\n   }, function (e, contract){\n    console.log(e, contract);\n    if (typeof contract.address !== 'undefined') {\n         console.log('Contract mined! address: ' + contract.address + ' transactionHash: ' + contract.transactionHash);\n    }\n })",
  "metadataHash": "1c4f04a1467d98558446680b7371cb60d5f06661700530cd592f9c10db7b8fbb",
  "swarmLocation": "bzzr://1c4f04a1467d98558446680b7371cb60d5f06661700530cd592f9c10db7b8fbb",
  "functionHashes": {
    "e63d38ed": "disperseEther(address[],uint256[])",
    "c73a2d60": "disperseToken(address,address[],uint256[])",
    "51ba162c": "disperseTokenSimple(address,address[],uint256[])"
  },
  "gasEstimates": {
    "Creation": {
      "codeDepositCost": "356000",
      "executionCost": "393",
      "totalCost": "356393"
    },
    "External": {
      "disperseEther(address[],uint256[])": "infinite",
      "disperseToken(address,address[],uint256[])": "infinite",
      "disperseTokenSimple(address,address[],uint256[])": "infinite"
    }
  },
  "devdoc": {
    "methods": {}
  },
  "userdoc": {
    "methods": {}
  },
  "Runtime Bytecode": {
    "linkReferences": {},
    "object": "608060405260043610610057576000357c0100000000000000000000000000000000000000000000000000000000900463ffffffff16806351ba162c1461005c578063c73a2d60146100cf578063e63d38ed14610142575b600080fd5b34801561006857600080fd5b506100cd600480360381019080803573ffffffffffffffffffffffffffffffffffffffff169060200190929190803590602001908201803590602001919091929391929390803590602001908201803590602001919091929391929390505050610188565b005b3480156100db57600080fd5b50610140600480360381019080803573ffffffffffffffffffffffffffffffffffffffff169060200190929190803590602001908201803590602001919091929391929390803590602001908201803590602001919091929391929390505050610309565b005b6101866004803603810190808035906020019082018035906020019190919293919293908035906020019082018035906020019190919293919293905050506105b0565b005b60008090505b84849050811015610301578573ffffffffffffffffffffffffffffffffffffffff166323b872dd3387878581811015156101c457fe5b9050602002013573ffffffffffffffffffffffffffffffffffffffff1686868681811015156101ef57fe5b905060200201356040518463ffffffff167c0100000000000000000000000000000000000000000000000000000000028152600401808473ffffffffffffffffffffffffffffffffffffffff1673ffffffffffffffffffffffffffffffffffffffff1681526020018373ffffffffffffffffffffffffffffffffffffffff1673ffffffffffffffffffffffffffffffffffffffff1681526020018281526020019350505050602060405180830381600087803b1580156102ae57600080fd5b505af11580156102c2573d6000803e3d6000fd5b505050506040513d60208110156102d857600080fd5b810190808051906020019092919050505015156102f457600080fd5b808060010191505061018e565b505050505050565b60008060009150600090505b8585905081101561034657838382818110151561032e57fe5b90506020020135820191508080600101915050610315565b8673ffffffffffffffffffffffffffffffffffffffff166323b872dd3330856040518463ffffffff167c0100000000000000000000000000000000000000000000000000000000028152600401808473ffffffffffffffffffffffffffffffffffffffff1673ffffffffffffffffffffffffffffffffffffffff1681526020018373ffffffffffffffffffffffffffffffffffffffff1673ffffffffffffffffffffffffffffffffffffffff1681526020018281526020019350505050602060405180830381600087803b15801561041d57600080fd5b505af1158015610431573d6000803e3d6000fd5b505050506040513d602081101561044757600080fd5b8101908080519060200190929190505050151561046357600080fd5b600090505b858590508110156105a7578673ffffffffffffffffffffffffffffffffffffffff1663a9059cbb878784818110151561049d57fe5b9050602002013573ffffffffffffffffffffffffffffffffffffffff1686868581811015156104c857fe5b905060200201356040518363ffffffff167c0100000000000000000000000000000000000000000000000000000000028152600401808373ffffffffffffffffffffffffffffffffffffffff1673ffffffffffffffffffffffffffffffffffffffff16815260200182815260200192505050602060405180830381600087803b15801561055457600080fd5b505af1158015610568573d6000803e3d6000fd5b505050506040513d602081101561057e57600080fd5b8101908080519060200190929190505050151561059a57600080fd5b8080600101915050610468565b50505050505050565b600080600091505b858590508210156106555785858381811015156105d157fe5b9050602002013573ffffffffffffffffffffffffffffffffffffffff1673ffffffffffffffffffffffffffffffffffffffff166108fc858585818110151561061557fe5b905060200201359081150290604051600060405180830381858888f19350505050158015610647573d6000803e3d6000fd5b5081806001019250506105b8565b3073ffffffffffffffffffffffffffffffffffffffff1631905060008111156106c0573373ffffffffffffffffffffffffffffffffffffffff166108fc829081150290604051600060405180830381858888f193505050501580156106be573d6000803e3d6000fd5b505b5050505050505600a165627a7a723058201c4f04a1467d98558446680b7371cb60d5f06661700530cd592f9c10db7b8fbb0029",
    "opcodes": "PUSH1 0x80 PUSH1 0x40 MSTORE PUSH1 0x4 CALLDATASIZE LT PUSH2 0x57 JUMPI PUSH1 0x0 CALLDATALOAD PUSH29 0x100000000000000000000000000000000000000000000000000000000 SWAP1 DIV PUSH4 0xFFFFFFFF AND DUP1 PUSH4 0x51BA162C EQ PUSH2 0x5C JUMPI DUP1 PUSH4 0xC73A2D60 EQ PUSH2 0xCF JUMPI DUP1 PUSH4 0xE63D38ED EQ PUSH2 0x142 JUMPI JUMPDEST PUSH1 0x0 DUP1 REVERT JUMPDEST CALLVALUE DUP1 ISZERO PUSH2 0x68 JUMPI PUSH1 0x0 DUP1 REVERT JUMPDEST POP PUSH2 0xCD PUSH1 0x4 DUP1 CALLDATASIZE SUB DUP2 ADD SWAP1 DUP1 DUP1 CALLDATALOAD PUSH20 0xFFFFFFFFFFFFFFFFFFFFFFFFFFFFFFFFFFFFFFFF AND SWAP1 PUSH1 0x20 ADD SWAP1 SWAP3 SWAP2 SWAP1 DUP1 CALLDATALOAD SWAP1 PUSH1 0x20 ADD SWAP1 DUP3 ADD DUP1 CALLDATALOAD SWAP1 PUSH1 0x20 ADD SWAP2 SWAP1 SWAP2 SWAP3 SWAP4 SWAP2 SWAP3 SWAP4 SWAP1 DUP1 CALLDATALOAD SWAP1 PUSH1 0x20 ADD SWAP1 DUP3 ADD DUP1 CALLDATALOAD SWAP1 PUSH1 0x20 ADD SWAP2 SWAP1 SWAP2 SWAP3 SWAP4 SWAP2 SWAP3 SWAP4 SWAP1 POP POP POP PUSH2 0x188 JUMP JUMPDEST STOP JUMPDEST CALLVALUE DUP1 ISZERO PUSH2 0xDB JUMPI PUSH1 0x0 DUP1 REVERT JUMPDEST POP PUSH2 0x140 PUSH1 0x4 DUP1 CALLDATASIZE SUB DUP2 ADD SWAP1 DUP1 DUP1 CALLDATALOAD PUSH20 0xFFFFFFFFFFFFFFFFFFFFFFFFFFFFFFFFFFFFFFFF AND SWAP1 PUSH1 0x20 ADD SWAP1 SWAP3 SWAP2 SWAP1 DUP1 CALLDATALOAD SWAP1 PUSH1 0x20 ADD SWAP1 DUP3 ADD DUP1 CALLDATALOAD SWAP1 PUSH1 0x20 ADD SWAP2 SWAP1 SWAP2 SWAP3 SWAP4 SWAP2 SWAP3 SWAP4 SWAP1 DUP1 CALLDATALOAD SWAP1 PUSH1 0x20 ADD SWAP1 DUP3 ADD DUP1 CALLDATALOAD SWAP1 PUSH1 0x20 ADD SWAP2 SWAP1 SWAP2 SWAP3 SWAP4 SWAP2 SWAP3 SWAP4 SWAP1 POP POP POP PUSH2 0x309 JUMP JUMPDEST STOP JUMPDEST PUSH2 0x186 PUSH1 0x4 DUP1 CALLDATASIZE SUB DUP2 ADD SWAP1 DUP1 DUP1 CALLDATALOAD SWAP1 PUSH1 0x20 ADD SWAP1 DUP3 ADD DUP1 CALLDATALOAD SWAP1 PUSH1 0x20 ADD SWAP2 SWAP1 SWAP2 SWAP3 SWAP4 SWAP2 SWAP3 SWAP4 SWAP1 DUP1 CALLDATALOAD SWAP1 PUSH1 0x20 ADD SWAP1 DUP3 ADD DUP1 CALLDATALOAD SWAP1 PUSH1 0x20 ADD SWAP2 SWAP1 SWAP2 SWAP3 SWAP4 SWAP2 SWAP3 SWAP4 SWAP1 POP POP POP PUSH2 0x5B0 JUMP JUMPDEST STOP JUMPDEST PUSH1 0x0 DUP1 SWAP1 POP JUMPDEST DUP5 DUP5 SWAP1 POP DUP2 LT ISZERO PUSH2 0x301 JUMPI DUP6 PUSH20 0xFFFFFFFFFFFFFFFFFFFFFFFFFFFFFFFFFFFFFFFF AND PUSH4 0x23B872DD CALLER DUP8 DUP8 DUP6 DUP2 DUP2 LT ISZERO ISZERO PUSH2 0x1C4 JUMPI INVALID JUMPDEST SWAP1 POP PUSH1 0x20 MUL ADD CALLDATALOAD PUSH20 0xFFFFFFFFFFFFFFFFFFFFFFFFFFFFFFFFFFFFFFFF AND DUP7 DUP7 DUP7 DUP2 DUP2 LT ISZERO ISZERO PUSH2 0x1EF JUMPI INVALID JUMPDEST SWAP1 POP PUSH1 0x20 MUL ADD CALLDATALOAD PUSH1 0x40 MLOAD DUP5 PUSH4 0xFFFFFFFF AND PUSH29 0x100000000000000000000000000000000000000000000000000000000 MUL DUP2 MSTORE PUSH1 0x4 ADD DUP1 DUP5 PUSH20 0xFFFFFFFFFFFFFFFFFFFFFFFFFFFFFFFFFFFFFFFF AND PUSH20 0xFFFFFFFFFFFFFFFFFFFFFFFFFFFFFFFFFFFFFFFF AND DUP2 MSTORE PUSH1 0x20 ADD DUP4 PUSH20 0xFFFFFFFFFFFFFFFFFFFFFFFFFFFFFFFFFFFFFFFF AND PUSH20 0xFFFFFFFFFFFFFFFFFFFFFFFFFFFFFFFFFFFFFFFF AND DUP2 MSTORE PUSH1 0x20 ADD DUP3 DUP2 MSTORE PUSH1 0x20 ADD SWAP4 POP POP POP POP PUSH1 0x20 PUSH1 0x40 MLOAD DUP1 DUP4 SUB DUP2 PUSH1 0x0 DUP8 DUP1 EXTCODESIZE ISZERO DUP1 ISZERO PUSH2 0x2AE JUMPI PUSH1 0x0 DUP1 REVERT JUMPDEST POP GAS CALL ISZERO DUP1 ISZERO PUSH2 0x2C2 JUMPI RETURNDATASIZE PUSH1 0x0 DUP1 RETURNDATACOPY RETURNDATASIZE PUSH1 0x0 REVERT JUMPDEST POP POP POP POP PUSH1 0x40 MLOAD RETURNDATASIZE PUSH1 0x20 DUP2 LT ISZERO PUSH2 0x2D8 JUMPI PUSH1 0x0 DUP1 REVERT JUMPDEST DUP2 ADD SWAP1 DUP1 DUP1 MLOAD SWAP1 PUSH1 0x20 ADD SWAP1 SWAP3 SWAP2 SWAP1 POP POP POP ISZERO ISZERO PUSH2 0x2F4 JUMPI PUSH1 0x0 DUP1 REVERT JUMPDEST DUP1 DUP1 PUSH1 0x1 ADD SWAP2 POP POP PUSH2 0x18E JUMP JUMPDEST POP POP POP POP POP POP JUMP JUMPDEST PUSH1 0x0 DUP1 PUSH1 0x0 SWAP2 POP PUSH1 0x0 SWAP1 POP JUMPDEST DUP6 DUP6 SWAP1 POP DUP2 LT ISZERO PUSH2 0x346 JUMPI DUP4 DUP4 DUP3 DUP2 DUP2 LT ISZERO ISZERO PUSH2 0x32E JUMPI INVALID JUMPDEST SWAP1 POP PUSH1 0x20 MUL ADD CALLDATALOAD DUP3 ADD SWAP2 POP DUP1 DUP1 PUSH1 0x1 ADD SWAP2 POP POP PUSH2 0x315 JUMP JUMPDEST DUP7 PUSH20 0xFFFFFFFFFFFFFFFFFFFFFFFFFFFFFFFFFFFFFFFF AND PUSH4 0x23B872DD CALLER ADDRESS DUP6 PUSH1 0x40 MLOAD DUP5 PUSH4 0xFFFFFFFF AND PUSH29 0x100000000000000000000000000000000000000000000000000000000 MUL DUP2 MSTORE PUSH1 0x4 ADD DUP1 DUP5 PUSH20 0xFFFFFFFFFFFFFFFFFFFFFFFFFFFFFFFFFFFFFFFF AND PUSH20 0xFFFFFFFFFFFFFFFFFFFFFFFFFFFFFFFFFFFFFFFF AND DUP2 MSTORE PUSH1 0x20 ADD DUP4 PUSH20 0xFFFFFFFFFFFFFFFFFFFFFFFFFFFFFFFFFFFFFFFF AND PUSH20 0xFFFFFFFFFFFFFFFFFFFFFFFFFFFFFFFFFFFFFFFF AND DUP2 MSTORE PUSH1 0x20 ADD DUP3 DUP2 MSTORE PUSH1 0x20 ADD SWAP4 POP POP POP POP PUSH1 0x20 PUSH1 0x40 MLOAD DUP1 DUP4 SUB DUP2 PUSH1 0x0 DUP8 DUP1 EXTCODESIZE ISZERO DUP1 ISZERO PUSH2 0x41D JUMPI PUSH1 0x0 DUP1 REVERT JUMPDEST POP GAS CALL ISZERO DUP1 ISZERO PUSH2 0x431 JUMPI RETURNDATASIZE PUSH1 0x0 DUP1 RETURNDATACOPY RETURNDATASIZE PUSH1 0x0 REVERT JUMPDEST POP POP POP POP PUSH1 0x40 MLOAD RETURNDATASIZE PUSH1 0x20 DUP2 LT ISZERO PUSH2 0x447 JUMPI PUSH1 0x0 DUP1 REVERT JUMPDEST DUP2 ADD SWAP1 DUP1 DUP1 MLOAD SWAP1 PUSH1 0x20 ADD SWAP1 SWAP3 SWAP2 SWAP1 POP POP POP ISZERO ISZERO PUSH2 0x463 JUMPI PUSH1 0x0 DUP1 REVERT JUMPDEST PUSH1 0x0 SWAP1 POP JUMPDEST DUP6 DUP6 SWAP1 POP DUP2 LT ISZERO PUSH2 0x5A7 JUMPI DUP7 PUSH20 0xFFFFFFFFFFFFFFFFFFFFFFFFFFFFFFFFFFFFFFFF AND PUSH4 0xA9059CBB DUP8 DUP8 DUP5 DUP2 DUP2 LT ISZERO ISZERO PUSH2 0x49D JUMPI INVALID JUMPDEST SWAP1 POP PUSH1 0x20 MUL ADD CALLDATALOAD PUSH20 0xFFFFFFFFFFFFFFFFFFFFFFFFFFFFFFFFFFFFFFFF AND DUP7 DUP7 DUP6 DUP2 DUP2 LT ISZERO ISZERO PUSH2 0x4C8 JUMPI INVALID JUMPDEST SWAP1 POP PUSH1 0x20 MUL ADD CALLDATALOAD PUSH1 0x40 MLOAD DUP4 PUSH4 0xFFFFFFFF AND PUSH29 0x100000000000000000000000000000000000000000000000000000000 MUL DUP2 MSTORE PUSH1 0x4 ADD DUP1 DUP4 PUSH20 0xFFFFFFFFFFFFFFFFFFFFFFFFFFFFFFFFFFFFFFFF AND PUSH20 0xFFFFFFFFFFFFFFFFFFFFFFFFFFFFFFFFFFFFFFFF AND DUP2 MSTORE PUSH1 0x20 ADD DUP3 DUP2 MSTORE PUSH1 0x20 ADD SWAP3 POP POP POP PUSH1 0x20 PUSH1 0x40 MLOAD DUP1 DUP4 SUB DUP2 PUSH1 0x0 DUP8 DUP1 EXTCODESIZE ISZERO DUP1 ISZERO PUSH2 0x554 JUMPI PUSH1 0x0 DUP1 REVERT JUMPDEST POP GAS CALL ISZERO DUP1 ISZERO PUSH2 0x568 JUMPI RETURNDATASIZE PUSH1 0x0 DUP1 RETURNDATACOPY RETURNDATASIZE PUSH1 0x0 REVERT JUMPDEST POP POP POP POP PUSH1 0x40 MLOAD RETURNDATASIZE PUSH1 0x20 DUP2 LT ISZERO PUSH2 0x57E JUMPI PUSH1 0x0 DUP1 REVERT JUMPDEST DUP2 ADD SWAP1 DUP1 DUP1 MLOAD SWAP1 PUSH1 0x20 ADD SWAP1 SWAP3 SWAP2 SWAP1 POP POP POP ISZERO ISZERO PUSH2 0x59A JUMPI PUSH1 0x0 DUP1 REVERT JUMPDEST DUP1 DUP1 PUSH1 0x1 ADD SWAP2 POP POP PUSH2 0x468 JUMP JUMPDEST POP POP POP POP POP POP POP JUMP JUMPDEST PUSH1 0x0 DUP1 PUSH1 0x0 SWAP2 POP JUMPDEST DUP6 DUP6 SWAP1 POP DUP3 LT ISZERO PUSH2 0x655 JUMPI DUP6 DUP6 DUP4 DUP2 DUP2 LT ISZERO ISZERO PUSH2 0x5D1 JUMPI INVALID JUMPDEST SWAP1 POP PUSH1 0x20 MUL ADD CALLDATALOAD PUSH20 0xFFFFFFFFFFFFFFFFFFFFFFFFFFFFFFFFFFFFFFFF AND PUSH20 0xFFFFFFFFFFFFFFFFFFFFFFFFFFFFFFFFFFFFFFFF AND PUSH2 0x8FC DUP6 DUP6 DUP6 DUP2 DUP2 LT ISZERO ISZERO PUSH2 0x615 JUMPI INVALID JUMPDEST SWAP1 POP PUSH1 0x20 MUL ADD CALLDATALOAD SWAP1 DUP2 ISZERO MUL SWAP1 PUSH1 0x40 MLOAD PUSH1 0x0 PUSH1 0x40 MLOAD DUP1 DUP4 SUB DUP2 DUP6 DUP9 DUP9 CALL SWAP4 POP POP POP POP ISZERO DUP1 ISZERO PUSH2 0x647 JUMPI RETURNDATASIZE PUSH1 0x0 DUP1 RETURNDATACOPY RETURNDATASIZE PUSH1 0x0 REVERT JUMPDEST POP DUP2 DUP1 PUSH1 0x1 ADD SWAP3 POP POP PUSH2 0x5B8 JUMP JUMPDEST ADDRESS PUSH20 0xFFFFFFFFFFFFFFFFFFFFFFFFFFFFFFFFFFFFFFFF AND BALANCE SWAP1 POP PUSH1 0x0 DUP2 GT ISZERO PUSH2 0x6C0 JUMPI CALLER PUSH20 0xFFFFFFFFFFFFFFFFFFFFFFFFFFFFFFFFFFFFFFFF AND PUSH2 0x8FC DUP3 SWAP1 DUP2 ISZERO MUL SWAP1 PUSH1 0x40 MLOAD PUSH1 0x0 PUSH1 0x40 MLOAD DUP1 DUP4 SUB DUP2 DUP6 DUP9 DUP9 CALL SWAP4 POP POP POP POP ISZERO DUP1 ISZERO PUSH2 0x6BE JUMPI RETURNDATASIZE PUSH1 0x0 DUP1 RETURNDATACOPY RETURNDATASIZE PUSH1 0x0 REVERT JUMPDEST POP JUMPDEST POP POP POP POP POP POP JUMP STOP LOG1 PUSH6 0x627A7A723058 KECCAK256 SHR 0x4f DIV LOG1 0x46 PUSH30 0x98558446680B7371CB60D5F06661700530CD592F9C10DB7B8FBB00290000 "
  },
  "Assembly": ".code\n  PUSH 80\t\t\tcontract Disperse {\\n    funct...\n  PUSH 40\t\t\tcontract Disperse {\\n    funct...\n  MSTORE \t\t\tcontract Disperse {\\n    funct...\n  CALLVALUE \t\t\tcontract Disperse {\\n    funct...\n  DUP1 \t\t\t of https\n  ISZERO \t\t\ton\n  PUSH [tag] 1\t\t\ton\n  JUMPI \t\t\ton\n  PUSH 0\t\t\ti\n  DUP1 \t\t\ta\n  REVERT \t\t\tetherscan.io\ntag 1\t\t\ton\n  JUMPDEST \t\t\ton\n  POP \t\t\tcontract Disperse {\\n    funct...\n  PUSH #[$] 0000000000000000000000000000000000000000000000000000000000000000\t\t\tcontract Disperse {\\n    funct...\n  DUP1 \t\t\tcontract Disperse {\\n    funct...\n  PUSH [$] 0000000000000000000000000000000000000000000000000000000000000000\t\t\tcontract Disperse {\\n    funct...\n  PUSH 0\t\t\tcontract Disperse {\\n    funct...\n  CODECOPY \t\t\tcontract Disperse {\\n    funct...\n  PUSH 0\t\t\tcontract Disperse {\\n    funct...\n  RETURN \t\t\tcontract Disperse {\\n    funct...\n.data\n  0:\n    .code\n      PUSH 80\t\t\tcontract Disperse {\\n    funct...\n      PUSH 40\t\t\tcontract Disperse {\\n    funct...\n      MSTORE \t\t\tcontract Disperse {\\n    funct...\n      PUSH 4\t\t\tcontract Disperse {\\n    funct...\n      CALLDATASIZE \t\t\tcontract Disperse {\\n    funct...\n      LT \t\t\tcontract Disperse {\\n    funct...\n      PUSH [tag] 1\t\t\tcontract Disperse {\\n    funct...\n      JUMPI \t\t\tcontract Disperse {\\n    funct...\n      PUSH 0\t\t\tcontract Disperse {\\n    funct...\n      CALLDATALOAD \t\t\tcontract Disperse {\\n    funct...\n      PUSH 100000000000000000000000000000000000000000000000000000000\t\t\tcontract Disperse {\\n    funct...\n      SWAP1 \t\t\tcontract Disperse {\\n    funct...\n      DIV \t\t\tcontract Disperse {\\n    funct...\n      PUSH FFFFFFFF\t\t\tcontract Disperse {\\n    funct...\n      AND \t\t\tcontract Disperse {\\n    funct...\n      DUP1 \t\t\tcontract Disperse {\\n    funct...\n      PUSH 51BA162C\t\t\tcontract Disperse {\\n    funct...\n      EQ \t\t\tcontract Disperse {\\n    funct...\n      PUSH [tag] 2\t\t\tcontract Disperse {\\n    funct...\n      JUMPI \t\t\tcontract Disperse {\\n    funct...\n      DUP1 \t\t\tcontract Disperse {\\n    funct...\n      PUSH C73A2D60\t\t\tcontract Disperse {\\n    funct...\n      EQ \t\t\tcontract Disperse {\\n    funct...\n      PUSH [tag] 3\t\t\tcontract Disperse {\\n    funct...\n      JUMPI \t\t\tcontract Disperse {\\n    funct...\n      DUP1 \t\t\tcontract Disperse {\\n    funct...\n      PUSH E63D38ED\t\t\tcontract Disperse {\\n    funct...\n      EQ \t\t\tcontract Disperse {\\n    funct...\n      PUSH [tag] 4\t\t\tcontract Disperse {\\n    funct...\n      JUMPI \t\t\tcontract Disperse {\\n    funct...\n    tag 1\t\t\tcontract Disperse {\\n    funct...\n      JUMPDEST \t\t\tcontract Disperse {\\n    funct...\n      PUSH 0\t\t\tcontract Disperse {\\n    funct...\n      DUP1 \t\t\tcontract Disperse {\\n    funct...\n      REVERT \t\t\tcontract Disperse {\\n    funct...\n    tag 2\t\t\tfunction disperseTokenSimple(I...\n      JUMPDEST \t\t\tfunction disperseTokenSimple(I...\n      CALLVALUE \t\t\tfunction disperseTokenSimple(I...\n      DUP1 \t\t\t of https\n      ISZERO \t\t\ton\n      PUSH [tag] 5\t\t\ton\n      JUMPI \t\t\ton\n      PUSH 0\t\t\ti\n      DUP1 \t\t\ta\n      REVERT \t\t\tetherscan.io\n    tag 5\t\t\ton\n      JUMPDEST \t\t\ton\n      POP \t\t\tfunction disperseTokenSimple(I...\n      PUSH [tag] 6\t\t\tfunction disperseTokenSimple(I...\n      PUSH 4\t\t\tfunction disperseTokenSimple(I...\n      DUP1 \t\t\tfunction disperseTokenSimple(I...\n      CALLDATASIZE \t\t\tfunction disperseTokenSimple(I...\n      SUB \t\t\tfunction disperseTokenSimple(I...\n      DUP2 \t\t\tfunction disperseTokenSimple(I...\n      ADD \t\t\tfunction disperseTokenSimple(I...\n      SWAP1 \t\t\tfunction disperseTokenSimple(I...\n      DUP1 \t\t\tfunction disperseTokenSimple(I...\n      DUP1 \t\t\tfunction disperseTokenSimple(I...\n      CALLDATALOAD \t\t\tfunction disperseTokenSimple(I...\n      PUSH FFFFFFFFFFFFFFFFFFFFFFFFFFFFFFFFFFFFFFFF\t\t\tfunction disperseTokenSimple(I...\n      AND \t\t\tfunction disperseTokenSimple(I...\n      SWAP1 \t\t\tfunction disperseTokenSimple(I...\n      PUSH 20\t\t\tfunction disperseTokenSimple(I...\n      ADD \t\t\tfunction disperseTokenSimple(I...\n      SWAP1 \t\t\tfunction disperseTokenSimple(I...\n      SWAP3 \t\t\tfunction disperseTokenSimple(I...\n      SWAP2 \t\t\tfunction disperseTokenSimple(I...\n      SWAP1 \t\t\tfunction disperseTokenSimple(I...\n      DUP1 \t\t\tfunction disperseTokenSimple(I...\n      CALLDATALOAD \t\t\tfunction disperseTokenSimple(I...\n      SWAP1 \t\t\tfunction disperseTokenSimple(I...\n      PUSH 20\t\t\tfunction disperseTokenSimple(I...\n      ADD \t\t\tfunction disperseTokenSimple(I...\n      SWAP1 \t\t\tfunction disperseTokenSimple(I...\n      DUP3 \t\t\tfunction disperseTokenSimple(I...\n      ADD \t\t\tfunction disperseTokenSimple(I...\n      DUP1 \t\t\tfunction disperseTokenSimple(I...\n      CALLDATALOAD \t\t\tfunction disperseTokenSimple(I...\n      SWAP1 \t\t\tfunction disperseTokenSimple(I...\n      PUSH 20\t\t\tfunction disperseTokenSimple(I...\n      ADD \t\t\tfunction disperseTokenSimple(I...\n      SWAP2 \t\t\tfunction disperseTokenSimple(I...\n      SWAP1 \t\t\tfunction disperseTokenSimple(I...\n      SWAP2 \t\t\tfunction disperseTokenSimple(I...\n      SWAP3 \t\t\tfunction disperseTokenSimple(I...\n      SWAP4 \t\t\tfunction disperseTokenSimple(I...\n      SWAP2 \t\t\tfunction disperseTokenSimple(I...\n      SWAP3 \t\t\tfunction disperseTokenSimple(I...\n      SWAP4 \t\t\tfunction disperseTokenSimple(I...\n      SWAP1 \t\t\tfunction disperseTokenSimple(I...\n      DUP1 \t\t\tfunction disperseTokenSimple(I...\n      CALLDATALOAD \t\t\tfunction disperseTokenSimple(I...\n      SWAP1 \t\t\tfunction disperseTokenSimple(I...\n      PUSH 20\t\t\tfunction disperseTokenSimple(I...\n      ADD \t\t\tfunction disperseTokenSimple(I...\n      SWAP1 \t\t\tfunction disperseTokenSimple(I...\n      DUP3 \t\t\tfunction disperseTokenSimple(I...\n      ADD \t\t\tfunction disperseTokenSimple(I...\n      DUP1 \t\t\tfunction disperseTokenSimple(I...\n      CALLDATALOAD \t\t\tfunction disperseTokenSimple(I...\n      SWAP1 \t\t\tfunction disperseTokenSimple(I...\n      PUSH 20\t\t\tfunction disperseTokenSimple(I...\n      ADD \t\t\tfunction disperseTokenSimple(I...\n      SWAP2 \t\t\tfunction disperseTokenSimple(I...\n      SWAP1 \t\t\tfunction disperseTokenSimple(I...\n      SWAP2 \t\t\tfunction disperseTokenSimple(I...\n      SWAP3 \t\t\tfunction disperseTokenSimple(I...\n      SWAP4 \t\t\tfunction disperseTokenSimple(I...\n      SWAP2 \t\t\tfunction disperseTokenSimple(I...\n      SWAP3 \t\t\tfunction disperseTokenSimple(I...\n      SWAP4 \t\t\tfunction disperseTokenSimple(I...\n      SWAP1 \t\t\tfunction disperseTokenSimple(I...\n      POP \t\t\tfunction disperseTokenSimple(I...\n      POP \t\t\tfunction disperseTokenSimple(I...\n      POP \t\t\tfunction disperseTokenSimple(I...\n      PUSH [tag] 7\t\t\tfunction disperseTokenSimple(I...\n      JUMP \t\t\tfunction disperseTokenSimple(I...\n    tag 6\t\t\tfunction disperseTokenSimple(I...\n      JUMPDEST \t\t\tfunction disperseTokenSimple(I...\n      STOP \t\t\tfunction disperseTokenSimple(I...\n    tag 3\t\t\tfunction disperseToken(IERC20 ...\n      JUMPDEST \t\t\tfunction disperseToken(IERC20 ...\n      CALLVALUE \t\t\tfunction disperseToken(IERC20 ...\n      DUP1 \t\t\t of https\n      ISZERO \t\t\ton\n      PUSH [tag] 8\t\t\ton\n      JUMPI \t\t\ton\n      PUSH 0\t\t\ti\n      DUP1 \t\t\ta\n      REVERT \t\t\tetherscan.io\n    tag 8\t\t\ton\n      JUMPDEST \t\t\ton\n      POP \t\t\tfunction disperseToken(IERC20 ...\n      PUSH [tag] 9\t\t\tfunction disperseToken(IERC20 ...\n      PUSH 4\t\t\tfunction disperseToken(IERC20 ...\n      DUP1 \t\t\tfunction disperseToken(IERC20 ...\n      CALLDATASIZE \t\t\tfunction disperseToken(IERC20 ...\n      SUB \t\t\tfunction disperseToken(IERC20 ...\n      DUP2 \t\t\tfunction disperseToken(IERC20 ...\n      ADD \t\t\tfunction disperseToken(IERC20 ...\n      SWAP1 \t\t\tfunction disperseToken(IERC20 ...\n      DUP1 \t\t\tfunction disperseToken(IERC20 ...\n      DUP1 \t\t\tfunction disperseToken(IERC20 ...\n      CALLDATALOAD \t\t\tfunction disperseToken(IERC20 ...\n      PUSH FFFFFFFFFFFFFFFFFFFFFFFFFFFFFFFFFFFFFFFF\t\t\tfunction disperseToken(IERC20 ...\n      AND \t\t\tfunction disperseToken(IERC20 ...\n      SWAP1 \t\t\tfunction disperseToken(IERC20 ...\n      PUSH 20\t\t\tfunction disperseToken(IERC20 ...\n      ADD \t\t\tfunction disperseToken(IERC20 ...\n      SWAP1 \t\t\tfunction disperseToken(IERC20 ...\n      SWAP3 \t\t\tfunction disperseToken(IERC20 ...\n      SWAP2 \t\t\tfunction disperseToken(IERC20 ...\n      SWAP1 \t\t\tfunction disperseToken(IERC20 ...\n      DUP1 \t\t\tfunction disperseToken(IERC20 ...\n      CALLDATALOAD \t\t\tfunction disperseToken(IERC20 ...\n      SWAP1 \t\t\tfunction disperseToken(IERC20 ...\n      PUSH 20\t\t\tfunction disperseToken(IERC20 ...\n      ADD \t\t\tfunction disperseToken(IERC20 ...\n      SWAP1 \t\t\tfunction disperseToken(IERC20 ...\n      DUP3 \t\t\tfunction disperseToken(IERC20 ...\n      ADD \t\t\tfunction disperseToken(IERC20 ...\n      DUP1 \t\t\tfunction disperseToken(IERC20 ...\n      CALLDATALOAD \t\t\tfunction disperseToken(IERC20 ...\n      SWAP1 \t\t\tfunction disperseToken(IERC20 ...\n      PUSH 20\t\t\tfunction disperseToken(IERC20 ...\n      ADD \t\t\tfunction disperseToken(IERC20 ...\n      SWAP2 \t\t\tfunction disperseToken(IERC20 ...\n      SWAP1 \t\t\tfunction disperseToken(IERC20 ...\n      SWAP2 \t\t\tfunction disperseToken(IERC20 ...\n      SWAP3 \t\t\tfunction disperseToken(IERC20 ...\n      SWAP4 \t\t\tfunction disperseToken(IERC20 ...\n      SWAP2 \t\t\tfunction disperseToken(IERC20 ...\n      SWAP3 \t\t\tfunction disperseToken(IERC20 ...\n      SWAP4 \t\t\tfunction disperseToken(IERC20 ...\n      SWAP1 \t\t\tfunction disperseToken(IERC20 ...\n      DUP1 \t\t\tfunction disperseToken(IERC20 ...\n      CALLDATALOAD \t\t\tfunction disperseToken(IERC20 ...\n      SWAP1 \t\t\tfunction disperseToken(IERC20 ...\n      PUSH 20\t\t\tfunction disperseToken(IERC20 ...\n      ADD \t\t\tfunction disperseToken(IERC20 ...\n      SWAP1 \t\t\tfunction disperseToken(IERC20 ...\n      DUP3 \t\t\tfunction disperseToken(IERC20 ...\n      ADD \t\t\tfunction disperseToken(IERC20 ...\n      DUP1 \t\t\tfunction disperseToken(IERC20 ...\n      CALLDATALOAD \t\t\tfunction disperseToken(IERC20 ...\n      SWAP1 \t\t\tfunction disperseToken(IERC20 ...\n      PUSH 20\t\t\tfunction disperseToken(IERC20 ...\n      ADD \t\t\tfunction disperseToken(IERC20 ...\n      SWAP2 \t\t\tfunction disperseToken(IERC20 ...\n      SWAP1 \t\t\tfunction disperseToken(IERC20 ...\n      SWAP2 \t\t\tfunction disperseToken(IERC20 ...\n      SWAP3 \t\t\tfunction disperseToken(IERC20 ...\n      SWAP4 \t\t\tfunction disperseToken(IERC20 ...\n      SWAP2 \t\t\tfunction disperseToken(IERC20 ...\n      SWAP3 \t\t\tfunction disperseToken(IERC20 ...\n      SWAP4 \t\t\tfunction disperseToken(IERC20 ...\n      SWAP1 \t\t\tfunction disperseToken(IERC20 ...\n      POP \t\t\tfunction disperseToken(IERC20 ...\n      POP \t\t\tfunction disperseToken(IERC20 ...\n      POP \t\t\tfunction disperseToken(IERC20 ...\n      PUSH [tag] 10\t\t\tfunction disperseToken(IERC20 ...\n      JUMP \t\t\tfunction disperseToken(IERC20 ...\n    tag 9\t\t\tfunction disperseToken(IERC20 ...\n      JUMPDEST \t\t\tfunction disperseToken(IERC20 ...\n      STOP \t\t\tfunction disperseToken(IERC20 ...\n    tag 4\t\t\tfunction disperseEther(address...\n      JUMPDEST \t\t\tfunction disperseEther(address...\n      PUSH [tag] 11\t\t\tfunction disperseEther(address...\n      PUSH 4\t\t\tfunction disperseEther(address...\n      DUP1 \t\t\tfunction disperseEther(address...\n      CALLDATASIZE \t\t\tfunction disperseEther(address...\n      SUB \t\t\tfunction disperseEther(address...\n      DUP2 \t\t\tfunction disperseEther(address...\n      ADD \t\t\tfunction disperseEther(address...\n      SWAP1 \t\t\tfunction disperseEther(address...\n      DUP1 \t\t\tfunction disperseEther(address...\n      DUP1 \t\t\tfunction disperseEther(address...\n      CALLDATALOAD \t\t\tfunction disperseEther(address...\n      SWAP1 \t\t\tfunction disperseEther(address...\n      PUSH 20\t\t\tfunction disperseEther(address...\n      ADD \t\t\tfunction disperseEther(address...\n      SWAP1 \t\t\tfunction disperseEther(address...\n      DUP3 \t\t\tfunction disperseEther(address...\n      ADD \t\t\tfunction disperseEther(address...\n      DUP1 \t\t\tfunction disperseEther(address...\n      CALLDATALOAD \t\t\tfunction disperseEther(address...\n      SWAP1 \t\t\tfunction disperseEther(address...\n      PUSH 20\t\t\tfunction disperseEther(address...\n      ADD \t\t\tfunction disperseEther(address...\n      SWAP2 \t\t\tfunction disperseEther(address...\n      SWAP1 \t\t\tfunction disperseEther(address...\n      SWAP2 \t\t\tfunction disperseEther(address...\n      SWAP3 \t\t\tfunction disperseEther(address...\n      SWAP4 \t\t\tfunction disperseEther(address...\n      SWAP2 \t\t\tfunction disperseEther(address...\n      SWAP3 \t\t\tfunction disperseEther(address...\n      SWAP4 \t\t\tfunction disperseEther(address...\n      SWAP1 \t\t\tfunction disperseEther(address...\n      DUP1 \t\t\tfunction disperseEther(address...\n      CALLDATALOAD \t\t\tfunction disperseEther(address...\n      SWAP1 \t\t\tfunction disperseEther(address...\n      PUSH 20\t\t\tfunction disperseEther(address...\n      ADD \t\t\tfunction disperseEther(address...\n      SWAP1 \t\t\tfunction disperseEther(address...\n      DUP3 \t\t\tfunction disperseEther(address...\n      ADD \t\t\tfunction disperseEther(address...\n      DUP1 \t\t\tfunction disperseEther(address...\n      CALLDATALOAD \t\t\tfunction disperseEther(address...\n      SWAP1 \t\t\tfunction disperseEther(address...\n      PUSH 20\t\t\tfunction disperseEther(address...\n      ADD \t\t\tfunction disperseEther(address...\n      SWAP2 \t\t\tfunction disperseEther(address...\n      SWAP1 \t\t\tfunction disperseEther(address...\n      SWAP2 \t\t\tfunction disperseEther(address...\n      SWAP3 \t\t\tfunction disperseEther(address...\n      SWAP4 \t\t\tfunction disperseEther(address...\n      SWAP2 \t\t\tfunction disperseEther(address...\n      SWAP3 \t\t\tfunction disperseEther(address...\n      SWAP4 \t\t\tfunction disperseEther(address...\n      SWAP1 \t\t\tfunction disperseEther(address...\n      POP \t\t\tfunction disperseEther(address...\n      POP \t\t\tfunction disperseEther(address...\n      POP \t\t\tfunction disperseEther(address...\n      PUSH [tag] 12\t\t\tfunction disperseEther(address...\n      JUMP \t\t\tfunction disperseEther(address...\n    tag 11\t\t\tfunction disperseEther(address...\n      JUMPDEST \t\t\tfunction disperseEther(address...\n      STOP \t\t\tfunction disperseEther(address...\n    tag 7\t\t\tfunction disperseTokenSimple(I...\n      JUMPDEST \t\t\tfunction disperseTokenSimple(I...\n      PUSH 0\t\t\tuint256 i\n      DUP1 \t\t\t0\n      SWAP1 \t\t\tuint256 i = 0\n      POP \t\t\tuint256 i = 0\n    tag 14\t\t\tfor (uint256 i = 0; i < recipi...\n      JUMPDEST \t\t\tfor (uint256 i = 0; i < recipi...\n      DUP5 \t\t\trecipients\n      DUP5 \t\t\trecipients\n      SWAP1 \t\t\trecipients.length\n      POP \t\t\trecipients.length\n      DUP2 \t\t\ti\n      LT \t\t\ti < recipients.length\n      ISZERO \t\t\tfor (uint256 i = 0; i < recipi...\n      PUSH [tag] 15\t\t\tfor (uint256 i = 0; i < recipi...\n      JUMPI \t\t\tfor (uint256 i = 0; i < recipi...\n      DUP6 \t\t\ttoken\n      PUSH FFFFFFFFFFFFFFFFFFFFFFFFFFFFFFFFFFFFFFFF\t\t\ttoken.transferFrom\n      AND \t\t\ttoken.transferFrom\n      PUSH 23B872DD\t\t\ttoken.transferFrom\n      CALLER \t\t\tmsg.sender\n      DUP8 \t\t\trecipients\n      DUP8 \t\t\trecipients\n      DUP6 \t\t\ti\n      DUP2 \t\t\trecipients[i]\n      DUP2 \t\t\trecipients[i]\n      LT \t\t\trecipients[i]\n      ISZERO \t\t\trecipients[i]\n      ISZERO \t\t\trecipients[i]\n      PUSH [tag] 17\t\t\trecipients[i]\n      JUMPI \t\t\trecipients[i]\n      INVALID \t\t\trecipients[i]\n    tag 17\t\t\trecipients[i]\n      JUMPDEST \t\t\trecipients[i]\n      SWAP1 \t\t\trecipients[i]\n      POP \t\t\trecipients[i]\n      PUSH 20\t\t\trecipients[i]\n      MUL \t\t\trecipients[i]\n      ADD \t\t\trecipients[i]\n      CALLDATALOAD \t\t\trecipients[i]\n      PUSH FFFFFFFFFFFFFFFFFFFFFFFFFFFFFFFFFFFFFFFF\t\t\trecipients[i]\n      AND \t\t\trecipients[i]\n      DUP7 \t\t\tvalues\n      DUP7 \t\t\tvalues\n      DUP7 \t\t\ti\n      DUP2 \t\t\tvalues[i]\n      DUP2 \t\t\tvalues[i]\n      LT \t\t\tvalues[i]\n      ISZERO \t\t\tvalues[i]\n      ISZERO \t\t\tvalues[i]\n      PUSH [tag] 18\t\t\tvalues[i]\n      JUMPI \t\t\tvalues[i]\n      INVALID \t\t\tvalues[i]\n    tag 18\t\t\tvalues[i]\n      JUMPDEST \t\t\tvalues[i]\n      SWAP1 \t\t\tvalues[i]\n      POP \t\t\tvalues[i]\n      PUSH 20\t\t\tvalues[i]\n      MUL \t\t\tvalues[i]\n      ADD \t\t\tvalues[i]\n      CALLDATALOAD \t\t\tvalues[i]\n      PUSH 40\t\t\ttoken.transferFrom(msg.sender,...\n      MLOAD \t\t\ttoken.transferFrom(msg.sender,...\n      DUP5 \t\t\ttoken.transferFrom(msg.sender,...\n      PUSH FFFFFFFF\t\t\ttoken.transferFrom(msg.sender,...\n      AND \t\t\ttoken.transferFrom(msg.sender,...\n      PUSH 100000000000000000000000000000000000000000000000000000000\t\t\ttoken.transferFrom(msg.sender,...\n      MUL \t\t\ttoken.transferFrom(msg.sender,...\n      DUP2 \t\t\ttoken.transferFrom(msg.sender,...\n      MSTORE \t\t\ttoken.transferFrom(msg.sender,...\n      PUSH 4\t\t\ttoken.transferFrom(msg.sender,...\n      ADD \t\t\ttoken.transferFrom(msg.sender,...\n      DUP1 \t\t\ttoken.transferFrom(msg.sender,...\n      DUP5 \t\t\ttoken.transferFrom(msg.sender,...\n      PUSH FFFFFFFFFFFFFFFFFFFFFFFFFFFFFFFFFFFFFFFF\t\t\ttoken.transferFrom(msg.sender,...\n      AND \t\t\ttoken.transferFrom(msg.sender,...\n      PUSH FFFFFFFFFFFFFFFFFFFFFFFFFFFFFFFFFFFFFFFF\t\t\ttoken.transferFrom(msg.sender,...\n      AND \t\t\ttoken.transferFrom(msg.sender,...\n      DUP2 \t\t\ttoken.transferFrom(msg.sender,...\n      MSTORE \t\t\ttoken.transferFrom(msg.sender,...\n      PUSH 20\t\t\ttoken.transferFrom(msg.sender,...\n      ADD \t\t\ttoken.transferFrom(msg.sender,...\n      DUP4 \t\t\ttoken.transferFrom(msg.sender,...\n      PUSH FFFFFFFFFFFFFFFFFFFFFFFFFFFFFFFFFFFFFFFF\t\t\ttoken.transferFrom(msg.sender,...\n      AND \t\t\ttoken.transferFrom(msg.sender,...\n      PUSH FFFFFFFFFFFFFFFFFFFFFFFFFFFFFFFFFFFFFFFF\t\t\ttoken.transferFrom(msg.sender,...\n      AND \t\t\ttoken.transferFrom(msg.sender,...\n      DUP2 \t\t\ttoken.transferFrom(msg.sender,...\n      MSTORE \t\t\ttoken.transferFrom(msg.sender,...\n      PUSH 20\t\t\ttoken.transferFrom(msg.sender,...\n      ADD \t\t\ttoken.transferFrom(msg.sender,...\n      DUP3 \t\t\ttoken.transferFrom(msg.sender,...\n      DUP2 \t\t\ttoken.transferFrom(msg.sender,...\n      MSTORE \t\t\ttoken.transferFrom(msg.sender,...\n      PUSH 20\t\t\ttoken.transferFrom(msg.sender,...\n      ADD \t\t\ttoken.transferFrom(msg.sender,...\n      SWAP4 \t\t\ttoken.transferFrom(msg.sender,...\n      POP \t\t\ttoken.transferFrom(msg.sender,...\n      POP \t\t\ttoken.transferFrom(msg.sender,...\n      POP \t\t\ttoken.transferFrom(msg.sender,...\n      POP \t\t\ttoken.transferFrom(msg.sender,...\n      PUSH 20\t\t\ttoken.transferFrom(msg.sender,...\n      PUSH 40\t\t\ttoken.transferFrom(msg.sender,...\n      MLOAD \t\t\ttoken.transferFrom(msg.sender,...\n      DUP1 \t\t\ttoken.transferFrom(msg.sender,...\n      DUP4 \t\t\ttoken.transferFrom(msg.sender,...\n      SUB \t\t\ttoken.transferFrom(msg.sender,...\n      DUP2 \t\t\ttoken.transferFrom(msg.sender,...\n      PUSH 0\t\t\ttoken.transferFrom(msg.sender,...\n      DUP8 \t\t\ttoken.transferFrom(msg.sender,...\n      DUP1 \t\t\ttoken.transferFrom(msg.sender,...\n      EXTCODESIZE \t\t\ttoken.transferFrom(msg.sender,...\n      ISZERO \t\t\ttoken.transferFrom(msg.sender,...\n      DUP1 \t\t\t of https\n      ISZERO \t\t\ton\n      PUSH [tag] 19\t\t\ton\n      JUMPI \t\t\ton\n      PUSH 0\t\t\ti\n      DUP1 \t\t\ta\n      REVERT \t\t\tetherscan.io\n    tag 19\t\t\ton\n      JUMPDEST \t\t\ton\n      POP \t\t\ttoken.transferFrom(msg.sender,...\n      GAS \t\t\ttoken.transferFrom(msg.sender,...\n      CALL \t\t\ttoken.transferFrom(msg.sender,...\n      ISZERO \t\t\ttoken.transferFrom(msg.sender,...\n      DUP1 \t\t\t of https\n      ISZERO \t\t\ton\n      PUSH [tag] 20\t\t\ton\n      JUMPI \t\t\ton\n      RETURNDATASIZE \t\t\t52f549545093347A\n      PUSH 0\t\t\tx\n      DUP1 \t\t\ts\n      RETURNDATACOPY \t\t\trscan.io/address/0xD152f549545...\n      RETURNDATASIZE \t\t\t452150#code\\nprag\n      PUSH 0\t\t\t3\n      REVERT \t\t\t210e7293f1452150#code\\npragm\n    tag 20\t\t\ton\n      JUMPDEST \t\t\ton\n      POP \t\t\ttoken.transferFrom(msg.sender,...\n      POP \t\t\ttoken.transferFrom(msg.sender,...\n      POP \t\t\ttoken.transferFrom(msg.sender,...\n      POP \t\t\ttoken.transferFrom(msg.sender,...\n      PUSH 40\t\t\ttoken.transferFrom(msg.sender,...\n      MLOAD \t\t\ttoken.transferFrom(msg.sender,...\n      RETURNDATASIZE \t\t\ttoken.transferFrom(msg.sender,...\n      PUSH 20\t\t\ttt\n      DUP2 \t\t\t of\n      LT \t\t\tone of http\n      ISZERO \t\t\t C\n      PUSH [tag] 21\t\t\t C\n      JUMPI \t\t\t C\n      PUSH 0\t\t\t.\n      DUP1 \t\t\tc\n      REVERT \t\t\t/etherscan.i\n    tag 21\t\t\t C\n      JUMPDEST \t\t\t C\n      DUP2 \t\t\ttoken.transferFrom(msg.sender,...\n      ADD \t\t\ttoken.transferFrom(msg.sender,...\n      SWAP1 \t\t\ttoken.transferFrom(msg.sender,...\n      DUP1 \t\t\ttoken.transferFrom(msg.sender,...\n      DUP1 \t\t\ttoken.transferFrom(msg.sender,...\n      MLOAD \t\t\ttoken.transferFrom(msg.sender,...\n      SWAP1 \t\t\ttoken.transferFrom(msg.sender,...\n      PUSH 20\t\t\ttoken.transferFrom(msg.sender,...\n      ADD \t\t\ttoken.transferFrom(msg.sender,...\n      SWAP1 \t\t\ttoken.transferFrom(msg.sender,...\n      SWAP3 \t\t\ttoken.transferFrom(msg.sender,...\n      SWAP2 \t\t\ttoken.transferFrom(msg.sender,...\n      SWAP1 \t\t\ttoken.transferFrom(msg.sender,...\n      POP \t\t\ttoken.transferFrom(msg.sender,...\n      POP \t\t\ttoken.transferFrom(msg.sender,...\n      POP \t\t\ttoken.transferFrom(msg.sender,...\n      ISZERO \t\t\trequire(token.transferFrom(msg...\n      ISZERO \t\t\trequire(token.transferFrom(msg...\n      PUSH [tag] 22\t\t\trequire(token.transferFrom(msg...\n      JUMPI \t\t\trequire(token.transferFrom(msg...\n      PUSH 0\t\t\trequire(token.transferFrom(msg...\n      DUP1 \t\t\trequire(token.transferFrom(msg...\n      REVERT \t\t\trequire(token.transferFrom(msg...\n    tag 22\t\t\trequire(token.transferFrom(msg...\n      JUMPDEST \t\t\trequire(token.transferFrom(msg...\n      DUP1 \t\t\ti++\n      DUP1 \t\t\ti++\n      PUSH 1\t\t\ti++\n      ADD \t\t\ti++\n      SWAP2 \t\t\ti++\n      POP \t\t\ti++\n      POP \t\t\ti++\n      PUSH [tag] 14\t\t\tfor (uint256 i = 0; i < recipi...\n      JUMP \t\t\tfor (uint256 i = 0; i < recipi...\n    tag 15\t\t\tfor (uint256 i = 0; i < recipi...\n      JUMPDEST \t\t\tfor (uint256 i = 0; i < recipi...\n      POP \t\t\tfunction disperseTokenSimple(I...\n      POP \t\t\tfunction disperseTokenSimple(I...\n      POP \t\t\tfunction disperseTokenSimple(I...\n      POP \t\t\tfunction disperseTokenSimple(I...\n      POP \t\t\tfunction disperseTokenSimple(I...\n      POP \t\t\tfunction disperseTokenSimple(I...\n      JUMP [out]\t\t\tfunction disperseTokenSimple(I...\n    tag 10\t\t\tfunction disperseToken(IERC20 ...\n      JUMPDEST \t\t\tfunction disperseToken(IERC20 ...\n      PUSH 0\t\t\tuint256 total\n      DUP1 \t\t\tuint256 i\n      PUSH 0\t\t\t0\n      SWAP2 \t\t\tuint256 total = 0\n      POP \t\t\tuint256 total = 0\n      PUSH 0\t\t\t0\n      SWAP1 \t\t\tuint256 i = 0\n      POP \t\t\tuint256 i = 0\n    tag 24\t\t\tfor (uint256 i = 0; i < recipi...\n      JUMPDEST \t\t\tfor (uint256 i = 0; i < recipi...\n      DUP6 \t\t\trecipients\n      DUP6 \t\t\trecipients\n      SWAP1 \t\t\trecipients.length\n      POP \t\t\trecipients.length\n      DUP2 \t\t\ti\n      LT \t\t\ti < recipients.length\n      ISZERO \t\t\tfor (uint256 i = 0; i < recipi...\n      PUSH [tag] 25\t\t\tfor (uint256 i = 0; i < recipi...\n      JUMPI \t\t\tfor (uint256 i = 0; i < recipi...\n      DUP4 \t\t\tvalues\n      DUP4 \t\t\tvalues\n      DUP3 \t\t\ti\n      DUP2 \t\t\tvalues[i]\n      DUP2 \t\t\tvalues[i]\n      LT \t\t\tvalues[i]\n      ISZERO \t\t\tvalues[i]\n      ISZERO \t\t\tvalues[i]\n      PUSH [tag] 27\t\t\tvalues[i]\n      JUMPI \t\t\tvalues[i]\n      INVALID \t\t\tvalues[i]\n    tag 27\t\t\tvalues[i]\n      JUMPDEST \t\t\tvalues[i]\n      SWAP1 \t\t\tvalues[i]\n      POP \t\t\tvalues[i]\n      PUSH 20\t\t\tvalues[i]\n      MUL \t\t\tvalues[i]\n      ADD \t\t\tvalues[i]\n      CALLDATALOAD \t\t\tvalues[i]\n      DUP3 \t\t\ttotal += values[i]\n      ADD \t\t\ttotal += values[i]\n      SWAP2 \t\t\ttotal += values[i]\n      POP \t\t\ttotal += values[i]\n      DUP1 \t\t\ti++\n      DUP1 \t\t\ti++\n      PUSH 1\t\t\ti++\n      ADD \t\t\ti++\n      SWAP2 \t\t\ti++\n      POP \t\t\ti++\n      POP \t\t\ti++\n      PUSH [tag] 24\t\t\tfor (uint256 i = 0; i < recipi...\n      JUMP \t\t\tfor (uint256 i = 0; i < recipi...\n    tag 25\t\t\tfor (uint256 i = 0; i < recipi...\n      JUMPDEST \t\t\tfor (uint256 i = 0; i < recipi...\n      DUP7 \t\t\ttoken\n      PUSH FFFFFFFFFFFFFFFFFFFFFFFFFFFFFFFFFFFFFFFF\t\t\ttoken.transferFrom\n      AND \t\t\ttoken.transferFrom\n      PUSH 23B872DD\t\t\ttoken.transferFrom\n      CALLER \t\t\tmsg.sender\n      ADDRESS \t\t\tthis\n      DUP6 \t\t\ttotal\n      PUSH 40\t\t\ttoken.transferFrom(msg.sender,...\n      MLOAD \t\t\ttoken.transferFrom(msg.sender,...\n      DUP5 \t\t\ttoken.transferFrom(msg.sender,...\n      PUSH FFFFFFFF\t\t\ttoken.transferFrom(msg.sender,...\n      AND \t\t\ttoken.transferFrom(msg.sender,...\n      PUSH 100000000000000000000000000000000000000000000000000000000\t\t\ttoken.transferFrom(msg.sender,...\n      MUL \t\t\ttoken.transferFrom(msg.sender,...\n      DUP2 \t\t\ttoken.transferFrom(msg.sender,...\n      MSTORE \t\t\ttoken.transferFrom(msg.sender,...\n      PUSH 4\t\t\ttoken.transferFrom(msg.sender,...\n      ADD \t\t\ttoken.transferFrom(msg.sender,...\n      DUP1 \t\t\ttoken.transferFrom(msg.sender,...\n      DUP5 \t\t\ttoken.transferFrom(msg.sender,...\n      PUSH FFFFFFFFFFFFFFFFFFFFFFFFFFFFFFFFFFFFFFFF\t\t\ttoken.transferFrom(msg.sender,...\n      AND \t\t\ttoken.transferFrom(msg.sender,...\n      PUSH FFFFFFFFFFFFFFFFFFFFFFFFFFFFFFFFFFFFFFFF\t\t\ttoken.transferFrom(msg.sender,...\n      AND \t\t\ttoken.transferFrom(msg.sender,...\n      DUP2 \t\t\ttoken.transferFrom(msg.sender,...\n      MSTORE \t\t\ttoken.transferFrom(msg.sender,...\n      PUSH 20\t\t\ttoken.transferFrom(msg.sender,...\n      ADD \t\t\ttoken.transferFrom(msg.sender,...\n      DUP4 \t\t\ttoken.transferFrom(msg.sender,...\n      PUSH FFFFFFFFFFFFFFFFFFFFFFFFFFFFFFFFFFFFFFFF\t\t\ttoken.transferFrom(msg.sender,...\n      AND \t\t\ttoken.transferFrom(msg.sender,...\n      PUSH FFFFFFFFFFFFFFFFFFFFFFFFFFFFFFFFFFFFFFFF\t\t\ttoken.transferFrom(msg.sender,...\n      AND \t\t\ttoken.transferFrom(msg.sender,...\n      DUP2 \t\t\ttoken.transferFrom(msg.sender,...\n      MSTORE \t\t\ttoken.transferFrom(msg.sender,...\n      PUSH 20\t\t\ttoken.transferFrom(msg.sender,...\n      ADD \t\t\ttoken.transferFrom(msg.sender,...\n      DUP3 \t\t\ttoken.transferFrom(msg.sender,...\n      DUP2 \t\t\ttoken.transferFrom(msg.sender,...\n      MSTORE \t\t\ttoken.transferFrom(msg.sender,...\n      PUSH 20\t\t\ttoken.transferFrom(msg.sender,...\n      ADD \t\t\ttoken.transferFrom(msg.sender,...\n      SWAP4 \t\t\ttoken.transferFrom(msg.sender,...\n      POP \t\t\ttoken.transferFrom(msg.sender,...\n      POP \t\t\ttoken.transferFrom(msg.sender,...\n      POP \t\t\ttoken.transferFrom(msg.sender,...\n      POP \t\t\ttoken.transferFrom(msg.sender,...\n      PUSH 20\t\t\ttoken.transferFrom(msg.sender,...\n      PUSH 40\t\t\ttoken.transferFrom(msg.sender,...\n      MLOAD \t\t\ttoken.transferFrom(msg.sender,...\n      DUP1 \t\t\ttoken.transferFrom(msg.sender,...\n      DUP4 \t\t\ttoken.transferFrom(msg.sender,...\n      SUB \t\t\ttoken.transferFrom(msg.sender,...\n      DUP2 \t\t\ttoken.transferFrom(msg.sender,...\n      PUSH 0\t\t\ttoken.transferFrom(msg.sender,...\n      DUP8 \t\t\ttoken.transferFrom(msg.sender,...\n      DUP1 \t\t\ttoken.transferFrom(msg.sender,...\n      EXTCODESIZE \t\t\ttoken.transferFrom(msg.sender,...\n      ISZERO \t\t\ttoken.transferFrom(msg.sender,...\n      DUP1 \t\t\t of https\n      ISZERO \t\t\ton\n      PUSH [tag] 28\t\t\ton\n      JUMPI \t\t\ton\n      PUSH 0\t\t\ti\n      DUP1 \t\t\ta\n      REVERT \t\t\tetherscan.io\n    tag 28\t\t\ton\n      JUMPDEST \t\t\ton\n      POP \t\t\ttoken.transferFrom(msg.sender,...\n      GAS \t\t\ttoken.transferFrom(msg.sender,...\n      CALL \t\t\ttoken.transferFrom(msg.sender,...\n      ISZERO \t\t\ttoken.transferFrom(msg.sender,...\n      DUP1 \t\t\t of https\n      ISZERO \t\t\ton\n      PUSH [tag] 29\t\t\ton\n      JUMPI \t\t\ton\n      RETURNDATASIZE \t\t\t52f549545093347A\n      PUSH 0\t\t\tx\n      DUP1 \t\t\ts\n      RETURNDATACOPY \t\t\trscan.io/address/0xD152f549545...\n      RETURNDATASIZE \t\t\t452150#code\\nprag\n      PUSH 0\t\t\t3\n      REVERT \t\t\t210e7293f1452150#code\\npragm\n    tag 29\t\t\ton\n      JUMPDEST \t\t\ton\n      POP \t\t\ttoken.transferFrom(msg.sender,...\n      POP \t\t\ttoken.transferFrom(msg.sender,...\n      POP \t\t\ttoken.transferFrom(msg.sender,...\n      POP \t\t\ttoken.transferFrom(msg.sender,...\n      PUSH 40\t\t\ttoken.transferFrom(msg.sender,...\n      MLOAD \t\t\ttoken.transferFrom(msg.sender,...\n      RETURNDATASIZE \t\t\ttoken.transferFrom(msg.sender,...\n      PUSH 20\t\t\ttt\n      DUP2 \t\t\t of\n      LT \t\t\tone of http\n      ISZERO \t\t\t C\n      PUSH [tag] 30\t\t\t C\n      JUMPI \t\t\t C\n      PUSH 0\t\t\t.\n      DUP1 \t\t\tc\n      REVERT \t\t\t/etherscan.i\n    tag 30\t\t\t C\n      JUMPDEST \t\t\t C\n      DUP2 \t\t\ttoken.transferFrom(msg.sender,...\n      ADD \t\t\ttoken.transferFrom(msg.sender,...\n      SWAP1 \t\t\ttoken.transferFrom(msg.sender,...\n      DUP1 \t\t\ttoken.transferFrom(msg.sender,...\n      DUP1 \t\t\ttoken.transferFrom(msg.sender,...\n      MLOAD \t\t\ttoken.transferFrom(msg.sender,...\n      SWAP1 \t\t\ttoken.transferFrom(msg.sender,...\n      PUSH 20\t\t\ttoken.transferFrom(msg.sender,...\n      ADD \t\t\ttoken.transferFrom(msg.sender,...\n      SWAP1 \t\t\ttoken.transferFrom(msg.sender,...\n      SWAP3 \t\t\ttoken.transferFrom(msg.sender,...\n      SWAP2 \t\t\ttoken.transferFrom(msg.sender,...\n      SWAP1 \t\t\ttoken.transferFrom(msg.sender,...\n      POP \t\t\ttoken.transferFrom(msg.sender,...\n      POP \t\t\ttoken.transferFrom(msg.sender,...\n      POP \t\t\ttoken.transferFrom(msg.sender,...\n      ISZERO \t\t\trequire(token.transferFrom(msg...\n      ISZERO \t\t\trequire(token.transferFrom(msg...\n      PUSH [tag] 31\t\t\trequire(token.transferFrom(msg...\n      JUMPI \t\t\trequire(token.transferFrom(msg...\n      PUSH 0\t\t\trequire(token.transferFrom(msg...\n      DUP1 \t\t\trequire(token.transferFrom(msg...\n      REVERT \t\t\trequire(token.transferFrom(msg...\n    tag 31\t\t\trequire(token.transferFrom(msg...\n      JUMPDEST \t\t\trequire(token.transferFrom(msg...\n      PUSH 0\t\t\t0\n      SWAP1 \t\t\ti = 0\n      POP \t\t\ti = 0\n    tag 32\t\t\tfor (i = 0; i < recipients.len...\n      JUMPDEST \t\t\tfor (i = 0; i < recipients.len...\n      DUP6 \t\t\trecipients\n      DUP6 \t\t\trecipients\n      SWAP1 \t\t\trecipients.length\n      POP \t\t\trecipients.length\n      DUP2 \t\t\ti\n      LT \t\t\ti < recipients.length\n      ISZERO \t\t\tfor (i = 0; i < recipients.len...\n      PUSH [tag] 33\t\t\tfor (i = 0; i < recipients.len...\n      JUMPI \t\t\tfor (i = 0; i < recipients.len...\n      DUP7 \t\t\ttoken\n      PUSH FFFFFFFFFFFFFFFFFFFFFFFFFFFFFFFFFFFFFFFF\t\t\ttoken.transfer\n      AND \t\t\ttoken.transfer\n      PUSH A9059CBB\t\t\ttoken.transfer\n      DUP8 \t\t\trecipients\n      DUP8 \t\t\trecipients\n      DUP5 \t\t\ti\n      DUP2 \t\t\trecipients[i]\n      DUP2 \t\t\trecipients[i]\n      LT \t\t\trecipients[i]\n      ISZERO \t\t\trecipients[i]\n      ISZERO \t\t\trecipients[i]\n      PUSH [tag] 35\t\t\trecipients[i]\n      JUMPI \t\t\trecipients[i]\n      INVALID \t\t\trecipients[i]\n    tag 35\t\t\trecipients[i]\n      JUMPDEST \t\t\trecipients[i]\n      SWAP1 \t\t\trecipients[i]\n      POP \t\t\trecipients[i]\n      PUSH 20\t\t\trecipients[i]\n      MUL \t\t\trecipients[i]\n      ADD \t\t\trecipients[i]\n      CALLDATALOAD \t\t\trecipients[i]\n      PUSH FFFFFFFFFFFFFFFFFFFFFFFFFFFFFFFFFFFFFFFF\t\t\trecipients[i]\n      AND \t\t\trecipients[i]\n      DUP7 \t\t\tvalues\n      DUP7 \t\t\tvalues\n      DUP6 \t\t\ti\n      DUP2 \t\t\tvalues[i]\n      DUP2 \t\t\tvalues[i]\n      LT \t\t\tvalues[i]\n      ISZERO \t\t\tvalues[i]\n      ISZERO \t\t\tvalues[i]\n      PUSH [tag] 36\t\t\tvalues[i]\n      JUMPI \t\t\tvalues[i]\n      INVALID \t\t\tvalues[i]\n    tag 36\t\t\tvalues[i]\n      JUMPDEST \t\t\tvalues[i]\n      SWAP1 \t\t\tvalues[i]\n      POP \t\t\tvalues[i]\n      PUSH 20\t\t\tvalues[i]\n      MUL \t\t\tvalues[i]\n      ADD \t\t\tvalues[i]\n      CALLDATALOAD \t\t\tvalues[i]\n      PUSH 40\t\t\ttoken.transfer(recipients[i], ...\n      MLOAD \t\t\ttoken.transfer(recipients[i], ...\n      DUP4 \t\t\ttoken.transfer(recipients[i], ...\n      PUSH FFFFFFFF\t\t\ttoken.transfer(recipients[i], ...\n      AND \t\t\ttoken.transfer(recipients[i], ...\n      PUSH 100000000000000000000000000000000000000000000000000000000\t\t\ttoken.transfer(recipients[i], ...\n      MUL \t\t\ttoken.transfer(recipients[i], ...\n      DUP2 \t\t\ttoken.transfer(recipients[i], ...\n      MSTORE \t\t\ttoken.transfer(recipients[i], ...\n      PUSH 4\t\t\ttoken.transfer(recipients[i], ...\n      ADD \t\t\ttoken.transfer(recipients[i], ...\n      DUP1 \t\t\ttoken.transfer(recipients[i], ...\n      DUP4 \t\t\ttoken.transfer(recipients[i], ...\n      PUSH FFFFFFFFFFFFFFFFFFFFFFFFFFFFFFFFFFFFFFFF\t\t\ttoken.transfer(recipients[i], ...\n      AND \t\t\ttoken.transfer(recipients[i], ...\n      PUSH FFFFFFFFFFFFFFFFFFFFFFFFFFFFFFFFFFFFFFFF\t\t\ttoken.transfer(recipients[i], ...\n      AND \t\t\ttoken.transfer(recipients[i], ...\n      DUP2 \t\t\ttoken.transfer(recipients[i], ...\n      MSTORE \t\t\ttoken.transfer(recipients[i], ...\n      PUSH 20\t\t\ttoken.transfer(recipients[i], ...\n      ADD \t\t\ttoken.transfer(recipients[i], ...\n      DUP3 \t\t\ttoken.transfer(recipients[i], ...\n      DUP2 \t\t\ttoken.transfer(recipients[i], ...\n      MSTORE \t\t\ttoken.transfer(recipients[i], ...\n      PUSH 20\t\t\ttoken.transfer(recipients[i], ...\n      ADD \t\t\ttoken.transfer(recipients[i], ...\n      SWAP3 \t\t\ttoken.transfer(recipients[i], ...\n      POP \t\t\ttoken.transfer(recipients[i], ...\n      POP \t\t\ttoken.transfer(recipients[i], ...\n      POP \t\t\ttoken.transfer(recipients[i], ...\n      PUSH 20\t\t\ttoken.transfer(recipients[i], ...\n      PUSH 40\t\t\ttoken.transfer(recipients[i], ...\n      MLOAD \t\t\ttoken.transfer(recipients[i], ...\n      DUP1 \t\t\ttoken.transfer(recipients[i], ...\n      DUP4 \t\t\ttoken.transfer(recipients[i], ...\n      SUB \t\t\ttoken.transfer(recipients[i], ...\n      DUP2 \t\t\ttoken.transfer(recipients[i], ...\n      PUSH 0\t\t\ttoken.transfer(recipients[i], ...\n      DUP8 \t\t\ttoken.transfer(recipients[i], ...\n      DUP1 \t\t\ttoken.transfer(recipients[i], ...\n      EXTCODESIZE \t\t\ttoken.transfer(recipients[i], ...\n      ISZERO \t\t\ttoken.transfer(recipients[i], ...\n      DUP1 \t\t\t of https\n      ISZERO \t\t\ton\n      PUSH [tag] 37\t\t\ton\n      JUMPI \t\t\ton\n      PUSH 0\t\t\ti\n      DUP1 \t\t\ta\n      REVERT \t\t\tetherscan.io\n    tag 37\t\t\ton\n      JUMPDEST \t\t\ton\n      POP \t\t\ttoken.transfer(recipients[i], ...\n      GAS \t\t\ttoken.transfer(recipients[i], ...\n      CALL \t\t\ttoken.transfer(recipients[i], ...\n      ISZERO \t\t\ttoken.transfer(recipients[i], ...\n      DUP1 \t\t\t of https\n      ISZERO \t\t\ton\n      PUSH [tag] 38\t\t\ton\n      JUMPI \t\t\ton\n      RETURNDATASIZE \t\t\t52f549545093347A\n      PUSH 0\t\t\tx\n      DUP1 \t\t\ts\n      RETURNDATACOPY \t\t\trscan.io/address/0xD152f549545...\n      RETURNDATASIZE \t\t\t452150#code\\nprag\n      PUSH 0\t\t\t3\n      REVERT \t\t\t210e7293f1452150#code\\npragm\n    tag 38\t\t\ton\n      JUMPDEST \t\t\ton\n      POP \t\t\ttoken.transfer(recipients[i], ...\n      POP \t\t\ttoken.transfer(recipients[i], ...\n      POP \t\t\ttoken.transfer(recipients[i], ...\n      POP \t\t\ttoken.transfer(recipients[i], ...\n      PUSH 40\t\t\ttoken.transfer(recipients[i], ...\n      MLOAD \t\t\ttoken.transfer(recipients[i], ...\n      RETURNDATASIZE \t\t\ttoken.transfer(recipients[i], ...\n      PUSH 20\t\t\ttt\n      DUP2 \t\t\t of\n      LT \t\t\tone of http\n      ISZERO \t\t\t C\n      PUSH [tag] 39\t\t\t C\n      JUMPI \t\t\t C\n      PUSH 0\t\t\t.\n      DUP1 \t\t\tc\n      REVERT \t\t\t/etherscan.i\n    tag 39\t\t\t C\n      JUMPDEST \t\t\t C\n      DUP2 \t\t\ttoken.transfer(recipients[i], ...\n      ADD \t\t\ttoken.transfer(recipients[i], ...\n      SWAP1 \t\t\ttoken.transfer(recipients[i], ...\n      DUP1 \t\t\ttoken.transfer(recipients[i], ...\n      DUP1 \t\t\ttoken.transfer(recipients[i], ...\n      MLOAD \t\t\ttoken.transfer(recipients[i], ...\n      SWAP1 \t\t\ttoken.transfer(recipients[i], ...\n      PUSH 20\t\t\ttoken.transfer(recipients[i], ...\n      ADD \t\t\ttoken.transfer(recipients[i], ...\n      SWAP1 \t\t\ttoken.transfer(recipients[i], ...\n      SWAP3 \t\t\ttoken.transfer(recipients[i], ...\n      SWAP2 \t\t\ttoken.transfer(recipients[i], ...\n      SWAP1 \t\t\ttoken.transfer(recipients[i], ...\n      POP \t\t\ttoken.transfer(recipients[i], ...\n      POP \t\t\ttoken.transfer(recipients[i], ...\n      POP \t\t\ttoken.transfer(recipients[i], ...\n      ISZERO \t\t\trequire(token.transfer(recipie...\n      ISZERO \t\t\trequire(token.transfer(recipie...\n      PUSH [tag] 40\t\t\trequire(token.transfer(recipie...\n      JUMPI \t\t\trequire(token.transfer(recipie...\n      PUSH 0\t\t\trequire(token.transfer(recipie...\n      DUP1 \t\t\trequire(token.transfer(recipie...\n      REVERT \t\t\trequire(token.transfer(recipie...\n    tag 40\t\t\trequire(token.transfer(recipie...\n      JUMPDEST \t\t\trequire(token.transfer(recipie...\n      DUP1 \t\t\ti++\n      DUP1 \t\t\ti++\n      PUSH 1\t\t\ti++\n      ADD \t\t\ti++\n      SWAP2 \t\t\ti++\n      POP \t\t\ti++\n      POP \t\t\ti++\n      PUSH [tag] 32\t\t\tfor (i = 0; i < recipients.len...\n      JUMP \t\t\tfor (i = 0; i < recipients.len...\n    tag 33\t\t\tfor (i = 0; i < recipients.len...\n      JUMPDEST \t\t\tfor (i = 0; i < recipients.len...\n      POP \t\t\tfunction disperseToken(IERC20 ...\n      POP \t\t\tfunction disperseToken(IERC20 ...\n      POP \t\t\tfunction disperseToken(IERC20 ...\n      POP \t\t\tfunction disperseToken(IERC20 ...\n      POP \t\t\tfunction disperseToken(IERC20 ...\n      POP \t\t\tfunction disperseToken(IERC20 ...\n      POP \t\t\tfunction disperseToken(IERC20 ...\n      JUMP [out]\t\t\tfunction disperseToken(IERC20 ...\n    tag 12\t\t\tfunction disperseEther(address...\n      JUMPDEST \t\t\tfunction disperseEther(address...\n      PUSH 0\t\t\tuint256 i\n      DUP1 \t\t\tuint256 balance\n      PUSH 0\t\t\t0\n      SWAP2 \t\t\tuint256 i = 0\n      POP \t\t\tuint256 i = 0\n    tag 42\t\t\tfor (uint256 i = 0; i < recipi...\n      JUMPDEST \t\t\tfor (uint256 i = 0; i < recipi...\n      DUP6 \t\t\trecipients\n      DUP6 \t\t\trecipients\n      SWAP1 \t\t\trecipients.length\n      POP \t\t\trecipients.length\n      DUP3 \t\t\ti\n      LT \t\t\ti < recipients.length\n      ISZERO \t\t\tfor (uint256 i = 0; i < recipi...\n      PUSH [tag] 43\t\t\tfor (uint256 i = 0; i < recipi...\n      JUMPI \t\t\tfor (uint256 i = 0; i < recipi...\n      DUP6 \t\t\trecipients\n      DUP6 \t\t\trecipients\n      DUP4 \t\t\ti\n      DUP2 \t\t\trecipients[i]\n      DUP2 \t\t\trecipients[i]\n      LT \t\t\trecipients[i]\n      ISZERO \t\t\trecipients[i]\n      ISZERO \t\t\trecipients[i]\n      PUSH [tag] 45\t\t\trecipients[i]\n      JUMPI \t\t\trecipients[i]\n      INVALID \t\t\trecipients[i]\n    tag 45\t\t\trecipients[i]\n      JUMPDEST \t\t\trecipients[i]\n      SWAP1 \t\t\trecipients[i]\n      POP \t\t\trecipients[i]\n      PUSH 20\t\t\trecipients[i]\n      MUL \t\t\trecipients[i]\n      ADD \t\t\trecipients[i]\n      CALLDATALOAD \t\t\trecipients[i]\n      PUSH FFFFFFFFFFFFFFFFFFFFFFFFFFFFFFFFFFFFFFFF\t\t\trecipients[i]\n      AND \t\t\trecipients[i]\n      PUSH FFFFFFFFFFFFFFFFFFFFFFFFFFFFFFFFFFFFFFFF\t\t\trecipients[i].transfer\n      AND \t\t\trecipients[i].transfer\n      PUSH 8FC\t\t\trecipients[i].transfer(values[...\n      DUP6 \t\t\tvalues\n      DUP6 \t\t\tvalues\n      DUP6 \t\t\ti\n      DUP2 \t\t\tvalues[i]\n      DUP2 \t\t\tvalues[i]\n      LT \t\t\tvalues[i]\n      ISZERO \t\t\tvalues[i]\n      ISZERO \t\t\tvalues[i]\n      PUSH [tag] 46\t\t\tvalues[i]\n      JUMPI \t\t\tvalues[i]\n      INVALID \t\t\tvalues[i]\n    tag 46\t\t\tvalues[i]\n      JUMPDEST \t\t\tvalues[i]\n      SWAP1 \t\t\tvalues[i]\n      POP \t\t\tvalues[i]\n      PUSH 20\t\t\tvalues[i]\n      MUL \t\t\tvalues[i]\n      ADD \t\t\tvalues[i]\n      CALLDATALOAD \t\t\tvalues[i]\n      SWAP1 \t\t\trecipients[i].transfer(values[...\n      DUP2 \t\t\trecipients[i].transfer(values[...\n      ISZERO \t\t\trecipients[i].transfer(values[...\n      MUL \t\t\trecipients[i].transfer(values[...\n      SWAP1 \t\t\trecipients[i].transfer(values[...\n      PUSH 40\t\t\trecipients[i].transfer(values[...\n      MLOAD \t\t\trecipients[i].transfer(values[...\n      PUSH 0\t\t\trecipients[i].transfer(values[...\n      PUSH 40\t\t\trecipients[i].transfer(values[...\n      MLOAD \t\t\trecipients[i].transfer(values[...\n      DUP1 \t\t\trecipients[i].transfer(values[...\n      DUP4 \t\t\trecipients[i].transfer(values[...\n      SUB \t\t\trecipients[i].transfer(values[...\n      DUP2 \t\t\trecipients[i].transfer(values[...\n      DUP6 \t\t\trecipients[i].transfer(values[...\n      DUP9 \t\t\trecipients[i].transfer(values[...\n      DUP9 \t\t\trecipients[i].transfer(values[...\n      CALL \t\t\trecipients[i].transfer(values[...\n      SWAP4 \t\t\trecipients[i].transfer(values[...\n      POP \t\t\trecipients[i].transfer(values[...\n      POP \t\t\trecipients[i].transfer(values[...\n      POP \t\t\trecipients[i].transfer(values[...\n      POP \t\t\trecipients[i].transfer(values[...\n      ISZERO \t\t\trecipients[i].transfer(values[...\n      DUP1 \t\t\t of https\n      ISZERO \t\t\ton\n      PUSH [tag] 47\t\t\ton\n      JUMPI \t\t\ton\n      RETURNDATASIZE \t\t\t52f549545093347A\n      PUSH 0\t\t\tx\n      DUP1 \t\t\ts\n      RETURNDATACOPY \t\t\trscan.io/address/0xD152f549545...\n      RETURNDATASIZE \t\t\t452150#code\\nprag\n      PUSH 0\t\t\t3\n      REVERT \t\t\t210e7293f1452150#code\\npragm\n    tag 47\t\t\ton\n      JUMPDEST \t\t\ton\n      POP \t\t\trecipients[i].transfer(values[...\n      DUP2 \t\t\ti++\n      DUP1 \t\t\ti++\n      PUSH 1\t\t\ti++\n      ADD \t\t\ti++\n      SWAP3 \t\t\ti++\n      POP \t\t\ti++\n      POP \t\t\ti++\n      PUSH [tag] 42\t\t\tfor (uint256 i = 0; i < recipi...\n      JUMP \t\t\tfor (uint256 i = 0; i < recipi...\n    tag 43\t\t\tfor (uint256 i = 0; i < recipi...\n      JUMPDEST \t\t\tfor (uint256 i = 0; i < recipi...\n      ADDRESS \t\t\tthis\n      PUSH FFFFFFFFFFFFFFFFFFFFFFFFFFFFFFFFFFFFFFFF\t\t\taddress(this).balance\n      AND \t\t\taddress(this).balance\n      BALANCE \t\t\taddress(this).balance\n      SWAP1 \t\t\tuint256 balance = address(this...\n      POP \t\t\tuint256 balance = address(this...\n      PUSH 0\t\t\t0\n      DUP2 \t\t\tbalance\n      GT \t\t\tbalance > 0\n      ISZERO \t\t\tif (balance > 0)\\n            ...\n      PUSH [tag] 48\t\t\tif (balance > 0)\\n            ...\n      JUMPI \t\t\tif (balance > 0)\\n            ...\n      CALLER \t\t\tmsg.sender\n      PUSH FFFFFFFFFFFFFFFFFFFFFFFFFFFFFFFFFFFFFFFF\t\t\tmsg.sender.transfer\n      AND \t\t\tmsg.sender.transfer\n      PUSH 8FC\t\t\tmsg.sender.transfer(balance)\n      DUP3 \t\t\tbalance\n      SWAP1 \t\t\tmsg.sender.transfer(balance)\n      DUP2 \t\t\tmsg.sender.transfer(balance)\n      ISZERO \t\t\tmsg.sender.transfer(balance)\n      MUL \t\t\tmsg.sender.transfer(balance)\n      SWAP1 \t\t\tmsg.sender.transfer(balance)\n      PUSH 40\t\t\tmsg.sender.transfer(balance)\n      MLOAD \t\t\tmsg.sender.transfer(balance)\n      PUSH 0\t\t\tmsg.sender.transfer(balance)\n      PUSH 40\t\t\tmsg.sender.transfer(balance)\n      MLOAD \t\t\tmsg.sender.transfer(balance)\n      DUP1 \t\t\tmsg.sender.transfer(balance)\n      DUP4 \t\t\tmsg.sender.transfer(balance)\n      SUB \t\t\tmsg.sender.transfer(balance)\n      DUP2 \t\t\tmsg.sender.transfer(balance)\n      DUP6 \t\t\tmsg.sender.transfer(balance)\n      DUP9 \t\t\tmsg.sender.transfer(balance)\n      DUP9 \t\t\tmsg.sender.transfer(balance)\n      CALL \t\t\tmsg.sender.transfer(balance)\n      SWAP4 \t\t\tmsg.sender.transfer(balance)\n      POP \t\t\tmsg.sender.transfer(balance)\n      POP \t\t\tmsg.sender.transfer(balance)\n      POP \t\t\tmsg.sender.transfer(balance)\n      POP \t\t\tmsg.sender.transfer(balance)\n      ISZERO \t\t\tmsg.sender.transfer(balance)\n      DUP1 \t\t\t of https\n      ISZERO \t\t\ton\n      PUSH [tag] 49\t\t\ton\n      JUMPI \t\t\ton\n      RETURNDATASIZE \t\t\t52f549545093347A\n      PUSH 0\t\t\tx\n      DUP1 \t\t\ts\n      RETURNDATACOPY \t\t\trscan.io/address/0xD152f549545...\n      RETURNDATASIZE \t\t\t452150#code\\nprag\n      PUSH 0\t\t\t3\n      REVERT \t\t\t210e7293f1452150#code\\npragm\n    tag 49\t\t\ton\n      JUMPDEST \t\t\ton\n      POP \t\t\tmsg.sender.transfer(balance)\n    tag 48\t\t\tif (balance > 0)\\n            ...\n      JUMPDEST \t\t\tif (balance > 0)\\n            ...\n      POP \t\t\tfunction disperseEther(address...\n      POP \t\t\tfunction disperseEther(address...\n      POP \t\t\tfunction disperseEther(address...\n      POP \t\t\tfunction disperseEther(address...\n      POP \t\t\tfunction disperseEther(address...\n      POP \t\t\tfunction disperseEther(address...\n      JUMP [out]\t\t\tfunction disperseEther(address...\n    .data\n"
}